:020000040800F2
:1000000000500020950100088301000885010008C8
:10001000DD010008870100088901000800000000D8
:100020000000000000000000000000008B0100083C
:100030008D010008000000008F0100084D0100083C
:10004000DD010008DD010008DD010008DD01000818
:10005000DD010008DD010008DD010008DD01000808
:10006000DD010008DD010008DD010008DD010008F8
:10007000DD010008DD010008DD010008DD010008E8
:10008000DD010008DD010008DD010008DD010008D8
:10009000DD010008DD010008DD010008DD010008C8
:1000A000DD010008DD010008DD010008DD010008B8
:1000B000DD010008DD010008DD010008DD010008A8
:1000C000DD010008DD010008DD010008DD01000898
:1000D000DD010008DD010008DD010008DD01000888
:1000E000DD010008DD010008DD010008000000005E
:1000F0000000000000000000000000000000000000
:0C01000000000000000000005FF808F1A3
:10010C0010B5054C237833B9044B13B10448AFF345
:10011C0000800123237010BD0000002000000000AF
:10012C002802000808B5034B1BB103490348AFF381
:10013C00008008BD00000000040000202802000818
:10014C0008B5094B00221A7007E0084A52F8233010
:10015C009847054A137801331370034B1B78044AF4
:10016C0012789342F1D908BDA00000202000002095
:10017C001C000020FEE7FEE7FEE7FEE7FEE7704707
:10018C0070477047704700000C480D490D4A00231A
:10019C0002E0D458C4500433C4188C42F9D30A4A30
:1001AC000A4C002301E013600432A242FBD3FFF798
:1001BC00E9FF00F00FF8FFF7DDFF704700000020AB
:1001CC00000000204802000800000020A4000020CD
:1001DC00FEE7000070B500260C4D0D4C641BA410FE
:1001EC00A64209D100F01AF800260A4D0A4C641BED
:1001FC00A410A64205D170BD55F8043B98470136B2
:10020C00EEE755F8043B98470136F2E74002000848
:10021C00400200084002000844020008F8B500BF84
:10022C00F8BC08BC9E467047F8B500BFF8BC08BCCB
:04023C009E46704723
:040240003101000880
:040244000D010008A0
:040000050800019559
:00000001FF
