:020000040800F2
:100000000050002091150008ED140008EF140008BE
:10001000D9150008F1140008F314000800000000CE
:10002000000000000000000000000000F5140008BF
:10003000F714000800000000F9140008DD100008A3
:10004000D9150008D9150008D9150008D9150008D8
:10005000D9150008D9150008D9150008D9150008C8
:10006000D9150008D9150008D9150008D9150008B8
:10007000D9150008D9150008D9150008D9150008A8
:10008000D9150008D9150008D9150008D915000898
:10009000D9150008D9150008D9150008D915000888
:1000A000D9150008D9150008D9150008D915000878
:1000B000D9150008D9150008D9150008E50D000864
:1000C000510E0008D9150008D9150008D9150008E7
:1000D000D9150008D9150008D9150008D915000848
:1000E000D9150008D9150008D9150008000000002E
:1000F0000000000000000000000000000000000000
:0C01000000000000000000005FF808F1A3
:10010C0081F0004102E000BF83F0004330B54FEABC
:10011C0041044FEA430594EA050F08BF90EA020F29
:10012C001FBF54EA000C55EA020C7FEA645C7FEABC
:10013C00655C00F0E2804FEA5454D4EB5555B8BFDF
:10014C006D420CDD2C4480EA020281EA030382EA50
:10015C00000083EA010180EA020281EA0303362DE2
:10016C0088BF30BD11F0004F4FEA01314FF4801CB5
:10017C004CEA113102D0404261EB410113F0004FC7
:10018C004FEA03334CEA133302D0524263EB43037E
:10019C0094EA050F00F0A780A4F10104D5F1200E1C
:1001AC000DDB02FA0EFC22FA05F2801841F1000177
:1001BC0003FA0EF2801843FA05F359410EE0A5F14B
:1001CC0020050EF1200E012A03FA0EFC28BF4CF07C
:1001DC00020C43FA05F3C01851EBE37101F0004532
:1001EC0007D54FF0000EDCF1000C7EEB00006EEB3F
:1001FC000101B1F5801F1BD3B1F5001F0CD34908C9
:10020C005FEA30004FEA3C0C04F101044FEA44521F
:10021C0012F5800F80F09A80BCF1004F08BF5FEAA6
:10022C00500C50F1000041EB045141EA050130BD86
:10023C005FEA4C0C404141EB0101013C28BFB1F598
:10024C00801FE9D291F0000F04BF01460020B1FAE3
:10025C0081F308BF2033A3F10B03B3F120020CDAB6
:10026C000C3208DD02F1140CC2F10C0201FA0CF094
:10027C0021FA02F10CE002F11402D8BFC2F1200CF9
:10028C0001FA02F120FA0CFCDCBF41EA0C019040AF
:10029C00E41AA2BF01EB0451294330BD6FEA0404F8
:1002AC001F3C1CDA0C340EDC04F11404C4F12002E3
:1002BC0020FA04F001FA02F340EA030021FA04F3F5
:1002CC0045EA030130BDC4F10C04C4F1200220FA4C
:1002DC0002F001FA04F340EA0300294630BD21FA8A
:1002EC0004F0294630BD94F0000F83F4801306BF50
:1002FC0081F480110134013D4EE77FEA645C18BF44
:10030C007FEA655C29D094EA050F08BF90EA020FDA
:10031C0005D054EA000C04BF1946104630BD91EAD2
:10032C00030F1EBF0021002030BD5FEA545C05D1D5
:10033C004000494128BF41F0004130BD14F5800414
:10034C003CBF01F5801130BD01F0004545F0FE4188
:10035C0041F470014FF0000030BD7FEA645C1ABFBD
:10036C00194610467FEA655C1CBF0B46024650EAF4
:10037C00013406BF52EA033591EA030F41F4002120
:10038C0030BD00BF90F0000F04BF0021704730B5A6
:10039C004FF4806404F132044FF000054FF000017B
:1003AC0050E700BF90F0000F04BF0021704730B53C
:1003BC004FF4806404F1320410F0004548BF404211
:1003CC004FF000013EE700BF42004FEAE2014FEA66
:1003DC0031014FEA02701FBF12F07F4393F07F4F41
:1003EC0081F06051704732F07F4208BF704793F044
:1003FC007F4F04BF41F40021704730B54FF4607457
:10040C0001F0004521F000411CE700BF50EA010259
:10041C0008BF704730B54FF000050AE050EA010202
:10042C0008BF704730B511F0004502D5404261EB72
:10043C0041014FF4806404F132045FEA915C3FF4B3
:10044C00D8AE4FF003025FEADC0C18BF03325FEA50
:10045C00DC0C18BF033202EBDC02C2F1200300FA01
:10046C0003FC20FA02F001FA03FE40EA0E0021FA26
:10047C0002F11444BDE600BF70B54FF0FF0C4CF414
:10048C00E06C1CEA11541DBF1CEA135594EA0C0FC6
:10049C0095EA0C0F00F0DEF82C4481EA030621EA01
:1004AC004C5123EA4C5350EA013518BF52EA03353C
:1004BC0041F4801143F4801338D0A0FB02CE4FF0EE
:1004CC000005E1FB02E506F00042E0FB03E54FF01E
:1004DC000006E1FB03569CF0000F18BF4EF0010E16
:1004EC00A4F1FF04B6F5007F64F5407404D25FEA12
:1004FC004E0E6D4146EB060642EAC62141EA5551C5
:10050C004FEAC52040EA5E504FEACE2EB4F1FD0C06
:10051C0088BFBCF5E06F1ED8BEF1004F08BF5FEA84
:10052C00500E50F1000041EB045170BD06F0004636
:10053C0046EA010140EA020081EA0301B4EB5C04E3
:10054C00C2BFD4EB0C0541EA045170BD41F48011DB
:10055C004FF0000E013C00F3AB8014F1360FDEBF00
:10056C00002001F0004170BDC4F10004203C35DADC
:10057C000C341BDC04F11404C4F1200500FA05F35F
:10058C0020FA04F001FA05F240EA020001F0004200
:10059C0021F0004110EBD37021FA04F642EB060176
:1005AC005EEA430E08BF20EAD37070BDC4F10C04A0
:1005BC00C4F1200500FA04F320FA05F001FA04F264
:1005CC0040EA020001F0004110EBD37041F1000150
:1005DC005EEA430E08BF20EAD37070BDC4F120055B
:1005EC0000FA05F24EEA020E20FA04F301FA05F2C3
:1005FC0043EA020321FA04F001F0004121FA04F26B
:10060C0020EA020000EBD3705EEA430E08BF20EA3A
:10061C00D37070BD94F0000F0FD101F00046400074
:10062C0041EB010111F4801F08BF013CF7D041EAF6
:10063C00060195F0000F18BF704703F000465200FA
:10064C0043EB030313F4801F08BF013DF7D043EACB
:10065C000603704794EA0C0F0CEA135518BF95EA81
:10066C000C0F0CD050EA410618BF52EA4306D1D108
:10067C0081EA030101F000414FF0000070BD50EA27
:10068C00410606BF1046194652EA430619D094EAB1
:10069C000C0F02D150EA013613D195EA0C0F05D19B
:1006AC0052EA03361CBF104619460AD181EA0301EF
:1006BC0001F0004141F0FE4141F470014FF00000A7
:1006CC0070BD41F0FE4141F4780170BD70B54FF042
:1006DC00FF0C4CF4E06C1CEA11541DBF1CEA1355C2
:1006EC0094EA0C0F95EA0C0F00F0A7F8A4EB0504A4
:1006FC0081EA030E52EA03354FEA013100F088809B
:10070C004FEA03334FF0805545EA131343EA126363
:10071C004FEA022245EA111545EA10654FEA002618
:10072C000EF000419D4208BF964244F1FD0404F5D1
:10073C00407402D25B084FEA3202B61A65EB03052D
:10074C005B084FEA32024FF480104FF4002CB6EBEA
:10075C00020E75EB030E22BFB61A754640EA0C006A
:10076C005B084FEA3202B6EB020E75EB030E22BFAA
:10077C00B61A754640EA5C005B084FEA3202B6EBEB
:10078C00020E75EB030E22BFB61A754640EA9C00AA
:10079C005B084FEA3202B6EB020E75EB030E22BF7A
:1007AC00B61A754640EADC0055EA060E18D04FEA38
:1007BC00051545EA16754FEA06164FEAC30343EAD8
:1007CC0052734FEAC2025FEA1C1CC0D111F4801FA5
:1007DC000BD141EA00014FF000004FF0004CB6E79E
:1007EC0011F4801F04BF01430020B4F1FD0C88BF3D
:1007FC00BCF5E06F3FF6AFAEB5EB030C04BFB6EB48
:10080C00020C5FEA500C50F1000041EB045170BD3A
:10081C000EF0004E4EEA113114EB5C04C2BFD4EB67
:10082C000C0541EA045170BD41F480114FF0000EEB
:10083C00013C90E645EA060E8DE60CEA135594EA67
:10084C000C0F08BF95EA0C0F3FF43BAF94EA0C0F6A
:10085C000AD150EA01347FF434AF95EA0C0F7FF4DF
:10086C0025AF104619462CE795EA0C0F06D152EA33
:10087C0003353FF4FDAE1046194622E750EA410617
:10088C0018BF52EA43067FF4C5AE50EA41047FF428
:10089C000DAF52EA43057FF4EBAE12E74A0011D2DA
:1008AC0012F5001211D20DD56FF47873B3EB6252BE
:1008BC000ED44FEAC12343F0004343EA505323FACA
:1008CC0002F070474FF00000704750EA013002D13F
:1008DC004FF0FF3070474FF00000704780F0004041
:1008EC0002E000BF81F0004142001FBF5FEA4103FC
:1008FC0092EA030F7FEA226C7FEA236C6AD04FEAFC
:10090C001262D2EB1363C1BFD21841404840414040
:10091C00B8BF5B42192B88BF704710F0004F40F4F2
:10092C00000020F07F4018BF404211F0004F41F40E
:10093C00000121F07F4118BF494292EA030F3FD0DA
:10094C00A2F1010241FA03FC10EB0C00C3F12003ED
:10095C0001FA03F100F0004302D5494260EB40007C
:10096C00B0F5000F13D3B0F1807F06D340084FEAE7
:10097C00310102F10102FE2A51D2B1F1004F40EBDC
:10098C00C25008BF20F0010040EA03007047490044
:10099C0040EB0000013A28BFB0F5000FEDD2B0FAE1
:1009AC0080FCACF1080CB2EB0C0200FA0CF0AABF04
:1009BC0000EBC25052421843BCBFD04018437047A2
:1009CC0092F0000F81F4000106BF80F400000132A8
:1009DC00013BB5E74FEA41037FEA226C18BF7FEA7F
:1009EC00236C21D092EA030F04D092F0000F08BFC1
:1009FC000846704790EA010F1CBF0020704712F0A8
:100A0C007F4F04D1400028BF40F00040704712F1E6
:100A1C0000723CBF00F50000704700F0004343F04B
:100A2C00FE4040F4000070477FEA226216BF084681
:100A3C007FEA23630146420206BF5FEA412390EA44
:100A4C00010F40F4800070474FF0000304E000BF3A
:100A5C0010F0004348BF40425FEA000C08BF7047EB
:100A6C0043F0964301464FF000001CE050EA0102AF
:100A7C0008BF70474FF000030AE000BF50EA0102C4
:100A8C0008BF704711F0004302D5404261EB4101B1
:100A9C005FEA010C02BF84460146002043F0B643D6
:100AAC0008BFA3F18053A3F50003BCFA8CF2083AFB
:100ABC00A3EBC25310DB01FA02FC634400FA02FC04
:100ACC00C2F12002BCF1004F20FA02F243EB02000B
:100ADC0008BF20F00100704702F1200201FA02FC6D
:100AEC00C2F1200250EA4C0021FA02F243EB020060
:100AFC0008BF20EADC7070474FF0FF0C1CEAD052A4
:100B0C001EBF1CEAD15392EA0C0F93EA0C0F6FD064
:100B1C001A4480EA010C400218BF5FEA41211ED042
:100B2C004FF0006343EA501043EA5111A0FB01312E
:100B3C000CF00040B1F5000F3EBF490041EAD37103
:100B4C005B0040EA010062F17F02FD2A1DD8B3F17F
:100B5C00004F40EBC25008BF20F00100704790F0EE
:100B6C00000F0CF0004C08BF49024CEA502040EA40
:100B7C0051207F3AC2BFD2F1FF0340EAC250704706
:100B8C0040F400004FF00003013A5DDC12F1190F44
:100B9C00DCBF00F000407047C2F10002410021FAB6
:100BAC0002F1C2F1200200FA02FC5FEA310040F1CE
:100BBC00000053EA4C0308BF20EADC70704792F047
:100BCC00000F00F0004C02BF400010F4000F013A7F
:100BDC00F9D040EA0C0093F0000F01F0004C02BF7A
:100BEC00490011F4000F013BF9D041EA0C018FE7E9
:100BFC000CEAD15392EA0C0F18BF93EA0C0F0AD0EF
:100C0C0030F0004C18BF31F0004CD8D180EA010014
:100C1C0000F00040704790F0000F17BF90F0004FAD
:100C2C00084691F0000F91F0004F14D092EA0C0F8F
:100C3C0001D142020FD193EA0C0F03D14B0218BF22
:100C4C00084608D180EA010000F0004040F0FE4068
:100C5C0040F40000704740F0FE4040F44000704704
:100C6C004FF0FF0C1CEAD0521EBF1CEAD15392EA83
:100C7C000C0F93EA0C0F69D0A2EB030280EA010C73
:100C8C0049024FEA402037D04FF0805343EA11110C
:100C9C0043EA10130CF000408B4238BF5B0042F16A
:100CAC007D024FF4000C8B4224BF5B1A40EA0C000F
:100CBC00B3EB510F24BFA3EB510340EA5C00B3EB41
:100CCC00910F24BFA3EB910340EA9C00B3EBD10F2F
:100CDC0024BFA3EBD10340EADC001B0118BF5FEA81
:100CEC001C1CE0D1FD2A3FF650AF8B4240EBC250AA
:100CFC0008BF20F0010070470CF0004C4CEA50206B
:100D0C007F32C2BFD2F1FF0340EAC250704740F4B9
:100D1C0000004FF00003013A37E792F0000F00F0AB
:100D2C00004C02BF400010F4000F013AF9D040EA29
:100D3C000C0093F0000F01F0004C02BF490011F4BD
:100D4C00000F013BF9D041EA0C0195E70CEAD153B5
:100D5C0092EA0C0F08D142027FF47DAF93EA0C0F9C
:100D6C007FF470AF084676E793EA0C0F04D14B0280
:100D7C003FF44CAF08466EE730F0004C18BF31F032
:100D8C00004CCAD130F000427FF45CAF31F000432C
:100D9C007FF43CAF5FE700BF10B5054C237833B947
:100DAC00044B13B10448AFF300800123237010BD32
:100DBC001C000020000000002416000808B5034B9E
:100DCC001BB103490348AFF3008008BD00000000CD
:100DDC00200000202416000808B5144B00221A70BD
:100DEC0004E0124A13780133DBB213700F4B1B78FB
:100DFC00DBB2052B0FD80E4B5A690C4B1B78DBB2B0
:100E0C000C49CB5C1A42ECD0084B1B78DBB2CA5CA9
:100E1C00094B1A70E5E7094B1B6803B19847084B5F
:100E2C004FF00042C3F8802108BD00BF40000020F5
:100E3C000054004010000020440000203C00002022
:100E4C0000E100E008B5144B00221A7004E0124ACD
:100E5C0013780133DBB213700F4B1B78DBB20D2B05
:100E6C0010D80E4B5A690C4B19780D4B33F81130C6
:100E7C001A42ECD0084B1A78094B33F81220094B64
:100E8C001A80E4E7084B1B6803B19847074B012213
:100E9C00C3F8842108BD00BF40000020005400406E
:100EAC0000000020420000203800002000E100E09B
:100EBC0001290BD860B101704279012393400901DB
:100ECC00826803FA01F1116100207047012070471C
:100EDC00012070470279A2F16103DBB2032B01D828
:100EEC00203A02714378042B1CD8C378082B1BD8EA
:100EFC008378022B1AD842790F2A19D80379413BEF
:100F0C00032B17D8DFE803F00205080B0A4B985C9B
:100F1C0070470A4B985C7047094B985C7047094BBB
:100F2C00985C704700207047002070470020704785
:100F3C0000207047002070473C1600084C16000833
:100F4C005C1600086C16000810B50446FFF7C2FFCB
:100F5C00002863D0324883692279A2F1410104222E
:100F6C008A4013438361237903F5801301339B0279
:100F7C00A3606279072A24D8196892000F2000FA1E
:100F8C0002F221EA02021A60A068036862786179B1
:100F9C0089008A4013430360A0680168E37823F05A
:100FAC00040362799200023293400B430360E378AE
:100FBC00022B27D0E378043BDBB2012B28D900208D
:100FCC0010BD5968083A92000F2000FA02F221EA8B
:100FDC0002025A60A068426861786379083B9B0002
:100FEC0001FA03F313434360A0684168E37823F0EC
:100FFC0004026379083B9B00023302FA03F30B43B0
:10100C004360D4E7A3786179A2688B40D360D1E7C1
:10101C0001212046FFF74CFF0020D1E70120CFE74C
:10102C0000100240014B1888704700BFD20000200E
:10103C004FF0E022136943F0010313617047000085
:10104C0008B5124B1880B0F57A7F02D84FF47A723B
:10105C001A8000F04DFA0D4B1A880D4B1B68B3FB30
:10106C00F2F3013BB3F1807F0AD24FF0E0225361DF
:10107C00084BF02183F8231000239361072313619D
:10108C00FFF7D6FF044B00221A6008BDD2000020E7
:10109C001800002000ED00E048000020002301E0D3
:1010AC000133DBB2084A12789A4205D9074A52F842
:1010BC0023208242F4D105E0511C034B1970034BE1
:1010CC0043F82200704700BF4C0000205000002065
:1010DC0008B50B4B00221A7007E00A4A52F823306D
:1010EC009847074A137801331370054B1B78064A4F
:1010FC0012789342F1D3054A13680133136008BD8B
:10110C00D0000020500000204C000020480000209F
:10111C0008B5374B1A681A60354B1B6813F0020F71
:10112C00FAD0334B1A6842F480321A601A6822F4EF
:10113C0080221A602E4B1B6813F4003FFAD02D4B03
:10114C001A6842F010021A601A6822F008021A603B
:10115C001A6822F007021A601A6842F002021A603A
:10116C00A3F580531A6822F080721A605A6822F034
:10117C00E0625A605A6822F480025A605A6842F45B
:10118C0080325A605A6842F440425A605A6822F4DB
:10119C0060525A605A6822F4E0625A605A6842F40B
:1011AC0080625A605A6822F470125A605A6842F48B
:1011BC00E0125A601A6842F080721A600C4B1B687D
:1011CC0013F0007FFAD00A4B5A6822F0F0025A60F2
:1011DC005A6822F003025A605A6842F002025A60BE
:1011EC00034B5B6813F0080FFAD000F081F908BDCF
:1011FC00001002400020024008B5FFF789FF4FF4B1
:10120C007A70FFF71DFF00F037F9002000F05AF953
:10121C00002000F01DF84FF47A7000F0B1F800F0E7
:10122C0011F800F021F8FCE70023034A1370034A7D
:10123C001370034A137070475C01002055010020A5
:10124C00D4000020014B01221A7070474C01002081
:10125C00014B1870704700BF54010020B0FBF1F334
:10126C0001FB1301401A7047314B1B78002B5ED0E9
:10127C0010B511E001212F48FFF71AFE21E02E4A8C
:10128C0013780133DBB213702C4A1268934230D2BC
:10129C00274B1B78002B49D0254A1378013BDBB236
:1012AC001370274B1B68002BE9D1264B1B78264A61
:1012BC00D25C214B1B789A42DCD900211D48FFF7E8
:1012CC00F7FD1D4A13780133DBB213701B4A126809
:1012DC009342DDD31B4A13780133DBB21370164AE9
:1012EC0000211170194A12789342D1D3154B197001
:1012FC00CEE7114B00221A70154C217801F0010138
:10130C000C48FFF7D5FD23685B0823600D4A137862
:10131C000133DBB213700D4A12789342B8D3094BE8
:10132C0000221A70064B1A682260B1E710BD704794
:10133C00D40000203C010020550100205801002061
:10134C00480100205C010020D80000205D01002035
:10135C005001002008B5074B1B7823B1064A1378BF
:10136C000133DBB21370054B1B7803B108BDFFF7DB
:10137C007BFFFBE74C010020D4000020540100202F
:10138C002DE9F8430446FFF74DFE064640F6B73309
:10139C009C4205D8B4F5FA7F04D84FF4FA7401E0F6
:1013AC0040F6B8342E4B1B6863BB2E4B64221A706C
:1013BC002C4B1D7829462046FFF750FF84B22A4B50
:1013CC001C803046FFF740FB06462846FFF73CFBE7
:1013DC00814601463046FFF743FC06462046FFF7A0
:1013EC0033FB01463046FFF787FBFEF7EDFF00228B
:1013FC001E4BFFF76BF9FFF751FA80461C4B186038
:10140C00002426E0174B20221A70D1E72046FFF764
:10141C001BFB4946FFF724FCFEF7D6FF02460B46A2
:10142C00FEF774FE06460F464046FFF70DFBFEF72F
:10143C00CBFF02460B4630463946FFF71DF8FFF747
:10144C002DFAC3B20B490B552A1B013A8B540134AC
:10145C00A4B2B4EB550FD9D3FFF7E6FEBDE8F88381
:10146C00480100205D0100204E01002000408F400B
:10147C0058010020D800002010B50E4843230371FA
:10148C000D2343710423C37002234370FFF75CFDEB
:10149C0010B10124204610BD04464FF47A70FFF7BA
:1014AC006FFF0023044A1360044A13600448FFF7DB
:1014BC00F5FDEFE73C010020480100205001002021
:1014CC006113000808B5044B1860044B1888FFF72B
:1014DC0057FFFFF7A9FE08BD480100204E01002070
:1014EC00FEE7FEE7FEE7FEE7704770477047704780
:1014FC001F4B5B6803F00C03042B14D0082B16D085
:10150C001BB11C4B1C4A1A6002E01A4B1A4A1A6097
:10151C00174B5B68C3F30313184AD15C154A136865
:10152C00CB4013607047134B134A1A60F0E7104A14
:10153C0053685268C3F38343023312F4803F05D1DE
:10154C000F4A02FB03F30B4A1360E1E7084A5268A7
:10155C0012F4003F05D00A4A02FB03F3054A13605C
:10156C00D6E7054A02FB03F3024A1360D0E700BF3B
:10157C00001002401800002000127A007C160008AF
:10158C0000093D000C480D490D4A002302E0D458D7
:10159C00C4500433C4188C42F9D30A4A0A4C0023B1
:1015AC0001E013600432A242FBD3FFF7A0FF00F06E
:1015BC000FF8FFF721FE7047000000201C000020F0
:1015CC00941600081C00002060010020FEE70000BB
:1015DC0070B500260C4D0D4C641BA410A64209D10D
:1015EC0000F01AF800260A4D0A4C641BA410A642FF
:1015FC0005D170BD55F8043B98470136EEE755F818
:10160C00043B98470136F2E78C1600088C1600084C
:10161C008C16000890160008F8B500BFF8BC08BC82
:10162C009E467047F8B500BFF8BC08BC9E46704794
:10163C00010101010101010101010101010101018E
:10164C00010101010101010101010101010101017E
:10165C00000000000000000000000000000101017B
:10166C00010100000000000000000000000000006C
:10167C000000000000000000010203040607080936
:04168C00C90D00087C
:04169000A50D00089C
:101694000001000200040008001000400080000067
:0C16A40001020804804000000024F40053
:040000050800159149
:00000001FF
