:020000040800F2
:1000000000500020911C0008A91A0008AB1A000833
:10001000D91C0008AD1A0008AF1A00080000000043
:10002000000000000000000000000000B11A0008FD
:10003000B31A000800000000B51A000811130008E8
:10004000D91C0008D91C0008D91C0008D91C0008BC
:10005000D91C0008D91C0008D91C0008D91C0008AC
:10006000D91C0008D91C0008D91C0008D91C00089C
:10007000D91C0008D91C0008D91C0008D91C00088C
:10008000D91C0008D91C0008D91C0008D91C00087C
:10009000D91C0008D91C0008D91C0008D91C00086C
:1000A000D91C0008D91C0008D91C0008D91C00085C
:1000B000D91C0008D91C0008D91C000835100008FC
:1000C00091100008D91C0008D91C0008D91C000890
:1000D000D91C0008D91C0008D91C0008D91C00082C
:1000E000D91C0008D91C0008D91C00080000000019
:1000F0000000000000000000000000000000000000
:0C01000000000000000000005FF808F1A3
:10010C0081F0004102E000BF83F0004330B54FEABC
:10011C0041044FEA430594EA050F08BF90EA020F29
:10012C001FBF54EA000C55EA020C7FEA645C7FEABC
:10013C00655C00F0E2804FEA5454D4EB5555B8BFDF
:10014C006D420CDD2C4480EA020281EA030382EA50
:10015C00000083EA010180EA020281EA0303362DE2
:10016C0088BF30BD11F0004F4FEA01314FF4801CB5
:10017C004CEA113102D0404261EB410113F0004FC7
:10018C004FEA03334CEA133302D0524263EB43037E
:10019C0094EA050F00F0A780A4F10104D5F1200E1C
:1001AC000DDB02FA0EFC22FA05F2801841F1000177
:1001BC0003FA0EF2801843FA05F359410EE0A5F14B
:1001CC0020050EF1200E012A03FA0EFC28BF4CF07C
:1001DC00020C43FA05F3C01851EBE37101F0004532
:1001EC0007D54FF0000EDCF1000C7EEB00006EEB3F
:1001FC000101B1F5801F1BD3B1F5001F0CD34908C9
:10020C005FEA30004FEA3C0C04F101044FEA44521F
:10021C0012F5800F80F09A80BCF1004F08BF5FEAA6
:10022C00500C50F1000041EB045141EA050130BD86
:10023C005FEA4C0C404141EB0101013C28BFB1F598
:10024C00801FE9D291F0000F04BF01460020B1FAE3
:10025C0081F308BF2033A3F10B03B3F120020CDAB6
:10026C000C3208DD02F1140CC2F10C0201FA0CF094
:10027C0021FA02F10CE002F11402D8BFC2F1200CF9
:10028C0001FA02F120FA0CFCDCBF41EA0C019040AF
:10029C00E41AA2BF01EB0451294330BD6FEA0404F8
:1002AC001F3C1CDA0C340EDC04F11404C4F12002E3
:1002BC0020FA04F001FA02F340EA030021FA04F3F5
:1002CC0045EA030130BDC4F10C04C4F1200220FA4C
:1002DC0002F001FA04F340EA0300294630BD21FA8A
:1002EC0004F0294630BD94F0000F83F4801306BF50
:1002FC0081F480110134013D4EE77FEA645C18BF44
:10030C007FEA655C29D094EA050F08BF90EA020FDA
:10031C0005D054EA000C04BF1946104630BD91EAD2
:10032C00030F1EBF0021002030BD5FEA545C05D1D5
:10033C004000494128BF41F0004130BD14F5800414
:10034C003CBF01F5801130BD01F0004545F0FE4188
:10035C0041F470014FF0000030BD7FEA645C1ABFBD
:10036C00194610467FEA655C1CBF0B46024650EAF4
:10037C00013406BF52EA033591EA030F41F4002120
:10038C0030BD00BF90F0000F04BF0021704730B5A6
:10039C004FF4806404F132044FF000054FF000017B
:1003AC0050E700BF90F0000F04BF0021704730B53C
:1003BC004FF4806404F1320410F0004548BF404211
:1003CC004FF000013EE700BF42004FEAE2014FEA66
:1003DC0031014FEA02701FBF12F07F4393F07F4F41
:1003EC0081F06051704732F07F4208BF704793F044
:1003FC007F4F04BF41F40021704730B54FF4607457
:10040C0001F0004521F000411CE700BF50EA010259
:10041C0008BF704730B54FF000050AE050EA010202
:10042C0008BF704730B511F0004502D5404261EB72
:10043C0041014FF4806404F132045FEA915C3FF4B3
:10044C00D8AE4FF003025FEADC0C18BF03325FEA50
:10045C00DC0C18BF033202EBDC02C2F1200300FA01
:10046C0003FC20FA02F001FA03FE40EA0E0021FA26
:10047C0002F11444BDE600BF70B54FF0FF0C4CF414
:10048C00E06C1CEA11541DBF1CEA135594EA0C0FC6
:10049C0095EA0C0F00F0DEF82C4481EA030621EA01
:1004AC004C5123EA4C5350EA013518BF52EA03353C
:1004BC0041F4801143F4801338D0A0FB02CE4FF0EE
:1004CC000005E1FB02E506F00042E0FB03E54FF01E
:1004DC000006E1FB03569CF0000F18BF4EF0010E16
:1004EC00A4F1FF04B6F5007F64F5407404D25FEA12
:1004FC004E0E6D4146EB060642EAC62141EA5551C5
:10050C004FEAC52040EA5E504FEACE2EB4F1FD0C06
:10051C0088BFBCF5E06F1ED8BEF1004F08BF5FEA84
:10052C00500E50F1000041EB045170BD06F0004636
:10053C0046EA010140EA020081EA0301B4EB5C04E3
:10054C00C2BFD4EB0C0541EA045170BD41F48011DB
:10055C004FF0000E013C00F3AB8014F1360FDEBF00
:10056C00002001F0004170BDC4F10004203C35DADC
:10057C000C341BDC04F11404C4F1200500FA05F35F
:10058C0020FA04F001FA05F240EA020001F0004200
:10059C0021F0004110EBD37021FA04F642EB060176
:1005AC005EEA430E08BF20EAD37070BDC4F10C04A0
:1005BC00C4F1200500FA04F320FA05F001FA04F264
:1005CC0040EA020001F0004110EBD37041F1000150
:1005DC005EEA430E08BF20EAD37070BDC4F120055B
:1005EC0000FA05F24EEA020E20FA04F301FA05F2C3
:1005FC0043EA020321FA04F001F0004121FA04F26B
:10060C0020EA020000EBD3705EEA430E08BF20EA3A
:10061C00D37070BD94F0000F0FD101F00046400074
:10062C0041EB010111F4801F08BF013CF7D041EAF6
:10063C00060195F0000F18BF704703F000465200FA
:10064C0043EB030313F4801F08BF013DF7D043EACB
:10065C000603704794EA0C0F0CEA135518BF95EA81
:10066C000C0F0CD050EA410618BF52EA4306D1D108
:10067C0081EA030101F000414FF0000070BD50EA27
:10068C00410606BF1046194652EA430619D094EAB1
:10069C000C0F02D150EA013613D195EA0C0F05D19B
:1006AC0052EA03361CBF104619460AD181EA0301EF
:1006BC0001F0004141F0FE4141F470014FF00000A7
:1006CC0070BD41F0FE4141F4780170BD70B54FF042
:1006DC00FF0C4CF4E06C1CEA11541DBF1CEA1355C2
:1006EC0094EA0C0F95EA0C0F00F0A7F8A4EB0504A4
:1006FC0081EA030E52EA03354FEA013100F088809B
:10070C004FEA03334FF0805545EA131343EA126363
:10071C004FEA022245EA111545EA10654FEA002618
:10072C000EF000419D4208BF964244F1FD0404F5D1
:10073C00407402D25B084FEA3202B61A65EB03052D
:10074C005B084FEA32024FF480104FF4002CB6EBEA
:10075C00020E75EB030E22BFB61A754640EA0C006A
:10076C005B084FEA3202B6EB020E75EB030E22BFAA
:10077C00B61A754640EA5C005B084FEA3202B6EBEB
:10078C00020E75EB030E22BFB61A754640EA9C00AA
:10079C005B084FEA3202B6EB020E75EB030E22BF7A
:1007AC00B61A754640EADC0055EA060E18D04FEA38
:1007BC00051545EA16754FEA06164FEAC30343EAD8
:1007CC0052734FEAC2025FEA1C1CC0D111F4801FA5
:1007DC000BD141EA00014FF000004FF0004CB6E79E
:1007EC0011F4801F04BF01430020B4F1FD0C88BF3D
:1007FC00BCF5E06F3FF6AFAEB5EB030C04BFB6EB48
:10080C00020C5FEA500C50F1000041EB045170BD3A
:10081C000EF0004E4EEA113114EB5C04C2BFD4EB67
:10082C000C0541EA045170BD41F480114FF0000EEB
:10083C00013C90E645EA060E8DE60CEA135594EA67
:10084C000C0F08BF95EA0C0F3FF43BAF94EA0C0F6A
:10085C000AD150EA01347FF434AF95EA0C0F7FF4DF
:10086C0025AF104619462CE795EA0C0F06D152EA33
:10087C0003353FF4FDAE1046194622E750EA410617
:10088C0018BF52EA43067FF4C5AE50EA41047FF428
:10089C000DAF52EA43057FF4EBAE12E74A0011D2DA
:1008AC0012F5001211D20DD56FF47873B3EB6252BE
:1008BC000ED44FEAC12343F0004343EA505323FACA
:1008CC0002F070474FF00000704750EA013002D13F
:1008DC004FF0FF3070474FF00000704780F0004041
:1008EC0002E000BF81F0004142001FBF5FEA4103FC
:1008FC0092EA030F7FEA226C7FEA236C6AD04FEAFC
:10090C001262D2EB1363C1BFD21841404840414040
:10091C00B8BF5B42192B88BF704710F0004F40F4F2
:10092C00000020F07F4018BF404211F0004F41F40E
:10093C00000121F07F4118BF494292EA030F3FD0DA
:10094C00A2F1010241FA03FC10EB0C00C3F12003ED
:10095C0001FA03F100F0004302D5494260EB40007C
:10096C00B0F5000F13D3B0F1807F06D340084FEAE7
:10097C00310102F10102FE2A51D2B1F1004F40EBDC
:10098C00C25008BF20F0010040EA03007047490044
:10099C0040EB0000013A28BFB0F5000FEDD2B0FAE1
:1009AC0080FCACF1080CB2EB0C0200FA0CF0AABF04
:1009BC0000EBC25052421843BCBFD04018437047A2
:1009CC0092F0000F81F4000106BF80F400000132A8
:1009DC00013BB5E74FEA41037FEA226C18BF7FEA7F
:1009EC00236C21D092EA030F04D092F0000F08BFC1
:1009FC000846704790EA010F1CBF0020704712F0A8
:100A0C007F4F04D1400028BF40F00040704712F1E6
:100A1C0000723CBF00F50000704700F0004343F04B
:100A2C00FE4040F4000070477FEA226216BF084681
:100A3C007FEA23630146420206BF5FEA412390EA44
:100A4C00010F40F4800070474FF0000304E000BF3A
:100A5C0010F0004348BF40425FEA000C08BF7047EB
:100A6C0043F0964301464FF000001CE050EA0102AF
:100A7C0008BF70474FF000030AE000BF50EA0102C4
:100A8C0008BF704711F0004302D5404261EB4101B1
:100A9C005FEA010C02BF84460146002043F0B643D6
:100AAC0008BFA3F18053A3F50003BCFA8CF2083AFB
:100ABC00A3EBC25310DB01FA02FC634400FA02FC04
:100ACC00C2F12002BCF1004F20FA02F243EB02000B
:100ADC0008BF20F00100704702F1200201FA02FC6D
:100AEC00C2F1200250EA4C0021FA02F243EB020060
:100AFC0008BF20EADC7070474FF0FF0C1CEAD052A4
:100B0C001EBF1CEAD15392EA0C0F93EA0C0F6FD064
:100B1C001A4480EA010C400218BF5FEA41211ED042
:100B2C004FF0006343EA501043EA5111A0FB01312E
:100B3C000CF00040B1F5000F3EBF490041EAD37103
:100B4C005B0040EA010062F17F02FD2A1DD8B3F17F
:100B5C00004F40EBC25008BF20F00100704790F0EE
:100B6C00000F0CF0004C08BF49024CEA502040EA40
:100B7C0051207F3AC2BFD2F1FF0340EAC250704706
:100B8C0040F400004FF00003013A5DDC12F1190F44
:100B9C00DCBF00F000407047C2F10002410021FAB6
:100BAC0002F1C2F1200200FA02FC5FEA310040F1CE
:100BBC00000053EA4C0308BF20EADC70704792F047
:100BCC00000F00F0004C02BF400010F4000F013A7F
:100BDC00F9D040EA0C0093F0000F01F0004C02BF7A
:100BEC00490011F4000F013BF9D041EA0C018FE7E9
:100BFC000CEAD15392EA0C0F18BF93EA0C0F0AD0EF
:100C0C0030F0004C18BF31F0004CD8D180EA010014
:100C1C0000F00040704790F0000F17BF90F0004FAD
:100C2C00084691F0000F91F0004F14D092EA0C0F8F
:100C3C0001D142020FD193EA0C0F03D14B0218BF22
:100C4C00084608D180EA010000F0004040F0FE4068
:100C5C0040F40000704740F0FE4040F44000704704
:100C6C004FF0FF0C1CEAD0521EBF1CEAD15392EA83
:100C7C000C0F93EA0C0F69D0A2EB030280EA010C73
:100C8C0049024FEA402037D04FF0805343EA11110C
:100C9C0043EA10130CF000408B4238BF5B0042F16A
:100CAC007D024FF4000C8B4224BF5B1A40EA0C000F
:100CBC00B3EB510F24BFA3EB510340EA5C00B3EB41
:100CCC00910F24BFA3EB910340EA9C00B3EBD10F2F
:100CDC0024BFA3EBD10340EADC001B0118BF5FEA81
:100CEC001C1CE0D1FD2A3FF650AF8B4240EBC250AA
:100CFC0008BF20F0010070470CF0004C4CEA50206B
:100D0C007F32C2BFD2F1FF0340EAC250704740F4B9
:100D1C0000004FF00003013A37E792F0000F00F0AB
:100D2C00004C02BF400010F4000F013AF9D040EA29
:100D3C000C0093F0000F01F0004C02BF490011F4BD
:100D4C00000F013BF9D041EA0C0195E70CEAD153B5
:100D5C0092EA0C0F08D142027FF47DAF93EA0C0F9C
:100D6C007FF470AF084676E793EA0C0F04D14B0280
:100D7C003FF44CAF08466EE730F0004C18BF31F032
:100D8C00004CCAD130F000427FF45CAF31F000432C
:100D9C007FF43CAF5FE700BF10B5054C237833B947
:100DAC00044B13B10448AFF300800123237010BD32
:100DBC001C00002000000000501D000808B5034B6B
:100DCC001BB103490348AFF3008008BD00000000CD
:100DDC0020000020501D0008072800D9704700B5DE
:100DEC0085B002238DF8043000238DF80C30084BAD
:100DFC000093084A009240221A70012202FA00F075
:100E0C005870684600F06AFD05B05DF804FB00BF41
:100E1C00480000203800002008B50420FFF7DCFF54
:100E2C0008BD0000044B1A6842F400421A601A68AC
:100E3C0022F400421A6070470054004010B5424B37
:100E4C00002283F81F234FF00041196083F8202300
:100E5C0001225A603D4BD96941F40011D96199695D
:100E6C0041F0080199613A48422303710823437108
:100E7C000723C3704270827000F080F910B1012416
:100E8C00204610BD334842230371092343710723C5
:100E9C00C37001234370837000F070F9044608B1ED
:100EAC000124EDE72C4A536843F0020353602B4BAB
:100EBC001A6822F001021A601A6822F080021A6085
:100ECC001A6822F040021A601A6822F002021A60B4
:100EDC005A6822F400625A605A6822F480625A609E
:100EEC005A6842F400725A605A6842F480725A602E
:100EFC005A6822F03F025A605A6842F032025A6035
:100F0C00DA6922F40042DA61DA6922F47F6222F0B3
:100F1C000F02DA61DA6942F0FA02DA611A6A22F037
:100F2C003F021A621A6A42F032021A621A6842F0DE
:100F3C0001021A60FFF776FF0823094A00210120FD
:100F4C0000F09FFE9CE700BF00E100E000100240B3
:100F5C00600000206C0000200000014000540040A4
:100F6C00681D0008024A136843F4806313607047DD
:100F7C000054004008B5044A136843F001031360A1
:100F8C00FFF7F0FF08BD00BF00540040024A136891
:100F9C0023F480631360704700540040024A1368C6
:100FAC0043F480731360704700540040024A136886
:100FBC0043F400731360704700540040054B5B69A9
:100FCC0013F0400F04D1034B1B69037000207047D2
:100FDC000120704700540040054B5B6913F0800FF3
:100FEC0004D10278024B1A6100207047012070472F
:100FFC000054004018B1034A1060002070470120D3
:10100C00704700BF5C00002018B1034A106000203C
:10101C0070470120704700BF58000020014B187822
:10102C00704700BF7C00002008B5114B00221A70DD
:10103C0004E00F4A13780133DBB213700C4B1B78AE
:10104C00DBB2052B0FD80B4B5A69094B1B78DBB263
:10105C000949CB5C1A42ECD0054B1B78DBB2CA5C5D
:10106C00064B1A70E5E7064B1B6803B1984708BDA1
:10107C007800002000540040100000207C0000206C
:10108C005C00002008B5124B00221A7004E0104AD4
:10109C0013780133DBB213700D4B1B78DBB20D2BC5
:1010AC0010D80C4B5A690A4B19780B4B33F811308A
:1010BC001A42ECD0064B1A78074B33F81220074B28
:1010CC001A80E4E7064B1B6803B1984708BD00BFC4
:1010DC007800002000540040000000207A0000201E
:1010EC005800002001290BD860B10170427901230E
:1010FC0093400901826803FA01F1116100207047E5
:10110C0001207047012070470279A2F16103DBB224
:10111C00032B01D8203A02714378042B1CD8C378D6
:10112C00082B1BD88378022B1AD842790F2A19D88E
:10113C000379413B032B17D8DFE803F00205080BBA
:10114C000A4B985C70470A4B985C7047094B985C4B
:10115C007047094B985C704700207047002070471F
:10116C00002070470020704700207047701D000859
:10117C00801D0008901D0008A01D000810B5044635
:10118C00FFF7C2FF002863D0324883692279A2F1AD
:10119C00410104228A4013438361237903F58013B0
:1011AC0001339B02A3606279072A24D81968920044
:1011BC000F2000FA02F221EA02021A60A06803680A
:1011CC006278617989008A4013430360A0680168E2
:1011DC00E37823F0040362799200023293400B43CC
:1011EC000360E378022B27D0E378043BDBB2012BBE
:1011FC0028D9002010BD5968083A92000F2000FA37
:10120C0002F221EA02025A60A068426861786379AE
:10121C00083B9B0001FA03F313434360A068416849
:10122C00E37823F004026379083B9B00023302FA53
:10123C0003F30B434360D4E7A3786179A2688B4036
:10124C00D360D1E701212046FFF74CFF0020D1E706
:10125C000120CFE700100240014B1888704700BFF7
:10126C000A0100204FF0E022136943F001031361DF
:10127C007047000008B5124B1880B0F57A7F02D881
:10128C004FF47A721A8000F011FC0D4B1A880D4B3A
:10129C001B68B3FBF2F3013BB3F1807F0AD24FF032
:1012AC00E0225361084BF02183F823100023936153
:1012BC0007231361FFF7D6FF044B00221A6008BD09
:1012CC000A0100201800002000ED00E08000002042
:1012DC00002301E00133DBB2084A12789A4205D9A7
:1012EC00074A52F823208242F4D105E0511C034BEB
:1012FC001970034B43F82200704700BF8400002094
:10130C008800002008B50B4B00221A7007E00A4A2F
:10131C0052F823309847074A137801331370054B62
:10132C001B78064A12789342F1D3054A13680133AD
:10133C00136008BD080100208800002084000020F4
:10134C008000002008B5374B1A681A60354B1B68B3
:10135C0013F0020FFAD0334B1A6842F480321A6041
:10136C001A6822F480221A602E4B1B6813F4003F7B
:10137C00FAD02D4B1A6842F010021A601A6822F04B
:10138C0008021A601A6822F007021A601A6842F002
:10139C0002021A60A3F580531A6822F080721A6058
:1013AC005A6822F0E0625A605A6822F480025A604D
:1013BC005A6842F480325A605A6842F440425A6089
:1013CC005A6822F460525A605A6822F4E0625A60F9
:1013DC005A6842F480625A605A6822F470125A6059
:1013EC005A6842F4E0125A601A6842F080721A602D
:1013FC000C4B1B6813F0007FFAD00A4B5A6822F092
:10140C00F0025A605A6822F003025A605A6842F09D
:10141C0002025A60034B5B6813F0080FFAD000F01D
:10142C0045FB08BD001002400020024008B5FFF744
:10143C0089FF4FF47A70FFF71DFF00F091F908B1A6
:10144C00012008BD00F0B2F9012000F075F84FF44E
:10145C007A7000F009F900F069F800F02DF8002816
:10146C00EED100F009FA0028EAD1FFF7D5FC00F024
:10147C002DFA00F06DF8FAE7044B1B7823B1044AFF
:10148C0013780133DBB21370704700BF6C0100207E
:10149C006D01002010B5002409E004EB4402930018
:1014AC00012104481844FFF71DFE0134E4B2072C57
:1014BC00F3D910BD0C01002010B50024072C15D851
:1014CC000F4B195D0F4A04EB440302EB83031971B4
:1014DC000D49095D59710421D970022159701846C2
:1014EC00FFF74CFE48B90134E4B2E7E70748FFF7D1
:1014FC00EFFEFFF7CFFF002010BD0120FCE700BF7F
:10150C00B81D00080C010020B01D0008851400084F
:10151C000023034A1370034A1370034A1370704775
:10152C00F4010020ED0100206E010020014B01228E
:10153C001A707047E4010020014B1870704700BF0F
:10154C00EC010020B0FBF1F301FB1301401A7047D2
:10155C00314B1B78002B5ED010B511E001212F48C8
:10156C00FFF7C0FD21E02E4A13780133DBB2137074
:10157C002C4A1268934230D2274B1B78002B49D04F
:10158C00254A1378013BDBB21370274B1B68002BE9
:10159C00E9D1264B1B78264AD25C214B1B789A4208
:1015AC00DCD900211D48FFF79DFD1D4A137801333E
:1015BC00DBB213701B4A12689342DDD31B4A1378BB
:1015CC000133DBB21370164A00211170194A1278DC
:1015DC009342D1D3154B1970CEE7114B00221A70E0
:1015EC00154C217801F001010C48FFF77BFD2368B5
:1015FC005B0823600D4A13780133DBB213700D4A7C
:10160C0012789342B8D3094B00221A70064B1A6811
:10161C002260B1E710BD70476E010020D40100209C
:10162C00ED010020F0010020E0010020F401002079
:10163C0070010020F5010020E801002008B5074BDF
:10164C001B7823B1064A13780133DBB21370054BB8
:10165C001B7803B108BDFFF77BFFFBE7E40100201B
:10166C006E010020EC0100202DE9F8430446FFF741
:10167C00F3FD064640F6B7339C4205D8B4F5FA7F25
:10168C0004D84FF4FA7401E040F6B8342E4B1B68C2
:10169C0063BB2E4B64221A702C4B1D7829462046B6
:1016AC00FFF750FF84B22A4B1C803046FFF7CCF971
:1016BC0006462846FFF7C8F9814601463046FFF733
:1016CC00CFFA06462046FFF7BFF901463046FFF732
:1016DC0013FAFEF779FE00221E4BFEF7F7FFFFF719
:1016EC00DDF880461C4B1860002426E0174B2022A6
:1016FC001A70D1E72046FFF7A7F94946FFF7B0FA71
:10170C00FEF762FE02460B46FEF700FD06460F464C
:10171C004046FFF799F9FEF757FE02460B46304656
:10172C003946FEF7A9FEFFF7B9F8C3B20B490B55C2
:10173C002A1B013A8B540134A4B2B4EB550FD9D304
:10174C00FFF7E6FEBDE8F883E0010020F50100207C
:10175C00E601002000408F40F001002070010020C5
:10176C0010B50E48432303710D2343710423C3703A
:10177C0002234370FFF702FD10B10124204610BD77
:10178C0004464FF47A70FFF76FFF0023044A13608E
:10179C00044A13600448FFF79BFDEFE7D4010020D7
:1017AC00E0010020E80100204916000808B5044BB0
:1017BC001860044B1888FFF757FFFFF7A9FE08BD08
:1017CC00E0010020E6010020FEE708B5FFF7FCFF72
:1017DC0008B5054B1B7803B108BDFFF7DFFB024BC7
:1017EC0001221A70F8E700BF1403002008B5FFF7B8
:1017FC00DDFB08BD08281DD00BD9402815D080284A
:10180C000DD1124B1B78DBB1114B1B78D3B10520DA
:10181C007047012805D002280ED1042070470920FA
:10182C0070470A4B1B784BB17047094B1B785BB167
:10183C000820704704207047092070470220704729
:10184C00042070470620704707207047F7010020DE
:10185C00F601002008B5FFF7E5FA034800F070F92F
:10186C00024B00221A7008BD000200201403002055
:10187C0008B5FFF77FFB08BD10B50E4B0E4A1A607A
:10188C00FFF7DCFA10B10124204610BD0B48FFF71E
:10189C00B1FB0B48FFF7B8FBF0220A490A4800F0ED
:1018AC005EF9044608B10124EEE7FFF7D3FFFFF71A
:1018BC00DFFFE9E7F8010020A1190008851A0008EC
:1018CC00D7170008140200200002002008B5024BB4
:1018DC001B68984708BD00BFF801002010B50146F1
:1018EC00036833B1836823B10379012B01D9037BDE
:1018FC005BB91022064800F042F9044610B10124ED
:10190C00204610BDFFF7E2FFFAE70124F8E700BF1D
:10191C0000020020194B00221A7002E00133174A12
:10192C001370164B1B78082B1AD803EB43018A0053
:10193C0013498958134A12689142EFD103EB4302C1
:10194C0091000F4A0A4451680F4A12789142E5D12E
:10195C0003EB430291000A4A0A449168094A116058
:10196C00082B03D8084B1B78092B02D1054B074ACF
:10197C001A60074B00221A70704700BFFC01002050
:10198C00C01D0008F8010020FD010020D51700083B
:10199C001403002010B50B4800F06EF900B110BD17
:1019AC00094C10222146074800F051F92279074BC7
:1019BC001A70227B064B1A70064B00221A70FFF726
:1019CC00A9FFECE70002002004030020F70100202F
:1019DC00F6010020FD01002008B50D4B1B7803B16A
:1019EC0008BD0C4B18680C4B1B781844FFF7F4FA25
:1019FC0038B9094A1378013B1370054B01221A7050
:101A0C00EEE7064B09221A70FFF784FFF5E700BFDB
:101A1C001403002004030020F7010020FD01002026
:101A2C0008B5114B1B7803B108BD104B98681B7B94
:101A3C000F4A12789B1A1844FFF7C0FA70B90C4A77
:101A4C001378013BDBB213702BB1FFF79FFA064BF7
:101A5C0001221A70E8E7FFF785FAF8E7054B09222F
:101A6C001A70FFF757FFF2E714030020040300205D
:101A7C00F6010020FD01002008B5FFF7CFFAFFF7B3
:101A8C00B9FE044B1870FFF745FF034B1B689847D2
:101A9C0008BD00BFFD010020F8010020FEE7FEE7B5
:101AAC00FEE7FEE770477047704770471F4B5B6857
:101ABC0003F00C03042B14D0082B16D01BB11C4BB9
:101ACC001C4A1A6002E01A4B1A4A1A60174B5B68E0
:101ADC00C3F30313184AD15C154A1368CB40136047
:101AEC007047134B134A1A60F0E7104A5368526858
:101AFC00C3F38343023312F4803F05D10F4A02FB38
:101B0C0003F30B4A1360E1E7084A526812F4003FF2
:101B1C0005D00A4A02FB03F3054A1360D6E7054ACF
:101B2C0002FB03F3024A1360D0E700BF001002402F
:101B3C001800002000127A002C1E000800093D003D
:101B4C0058B110B5044682680021006900F0F2F823
:101B5C00002020606060E06010BD0120704750B133
:101B6C0008B551B10AB9012008BD01618260FFF7C7
:101B7C00E7FF0020F8E7012070470120F4E79AB353
:101B8C002DE9F04104460D46164679B380B3006941
:101B9C0027683844D4F80880A8EB0702B04503D274
:101BAC00A6EB080635444646964218D9294600F05D
:101BBC00B3F8A7EB080232442946206900F0ACF8D0
:101BCC00236833442360A268B3FBF2F102FB1133A8
:101BDC002360E3683344E3600020BDE8F0813246C3
:101BEC00294600F099F8EBE7012070470120F4E753
:101BFC000120F2E720B32DE9F0410D4614460646CC
:101C0C0001B30AB3016947683944D0F80880A8EBDE
:101C1C000702A04500D2444694420BD9284600F056
:101C2C007BF8A7EB080222443169284600F074F8CF
:101C3C0000200AE02246284600F06EF8002004E05E
:101C4C0001207047012000E00120BDE8F08138B58B
:101C5C0004461546FFF7CEFF01280CD063682B44D1
:101C6C006360A268B3FBF2F102FB11336360E268BC
:101C7C00521BE260002038BDC068B0FA80F0400909
:101C8C00704770470C480D490D4A002302E0D458A8
:101C9C00C4500433C4188C42F9D30A4A0A4C0023AA
:101CAC0001E013600432A242FBD3FFF7FEFE00F00A
:101CBC000FF8FFF7BBFB7047000000201C00002052
:101CCC00441E00081C00002018030020FEE7000042
:101CDC0070B500260C4D0D4C641BA410A64209D106
:101CEC0000F030F800260A4D0A4C641BA410A642E2
:101CFC0005D170BD55F8043B98470136EEE755F811
:101D0C00043B98470136F2E73C1E00083C1E0008D5
:101D1C003C1E0008401E00080A44914200F1FF33AB
:101D2C0000D1704710B511F8014B914203F8014FE7
:101D3C00F9D110BD03460244934200D1704703F819
:101D4C00011BF9E7F8B500BFF8BC08BC9E4670470C
:0C1D5C00F8B500BFF8BC08BC9E467047FC
:101D680068775F69326331000101010101010101F6
:101D7800010101010101010101010101010101014B
:101D88000101010101010101000000000000000043
:101D98000000000000010101010100000000000036
:101DA80000000000000000000F00010304050B06FE
:101DB8004142424242424242A1190008000000004A
:101DC800DD170008DD17000801000000E51900080C
:101DD800E519000804000000E5190008E5190008E5
:101DE80006000000DD170008DD17000802000000EB
:101DF8002D1A0008E519000805000000F917000869
:101E08002D1A0008070000002D1A00082D1A0008D6
:101E180008000000F9170008F9170008030000007F
:101E2800A1190008000000000000000001020304DE
:041E38000607080988
:041E3C00C90D0008C4
:041E4000A50D0008E4
:101E440000010002000400080010004000800000AF
:0C1E540001020804804000000024F4009B
:0400000508001C9142
:00000001FF
