:020000040800F2
:1000000000500020C918000825180008271800080B
:1000100011190008291800082B180008000000001A
:100020000000000000000000000000002D18000883
:100030002F1800080000000031180008D114000833
:1000400011190008111900081119000811190008E8
:1000500011190008111900081119000811190008D8
:1000600011190008111900081119000811190008C8
:1000700011190008111900081119000811190008B8
:1000800011190008111900081119000811190008A8
:100090001119000811190008111900081119000898
:1000A0001119000811190008111900081119000888
:1000B0001119000811190008111900087D11000814
:1000C000D9110008111900081119000811190008A8
:1000D0001119000811190008111900081119000858
:1000E000111900081119000811190008000000007A
:1000F0000000000000000000000000000000000000
:0C01000000000000000000005FF808F1A3
:1001100081F0004102E000BF83F0004330B54FEAB8
:1001200041044FEA430594EA050F08BF90EA020F25
:100130001FBF54EA000C55EA020C7FEA645C7FEAB8
:10014000655C00F0E2804FEA5454D4EB5555B8BFDB
:100150006D420CDD2C4480EA020281EA030382EA4C
:10016000000083EA010180EA020281EA0303362DDE
:1001700088BF30BD11F0004F4FEA01314FF4801CB1
:100180004CEA113102D0404261EB410113F0004FC3
:100190004FEA03334CEA133302D0524263EB43037A
:1001A00094EA050F00F0A780A4F10104D5F1200E18
:1001B0000DDB02FA0EFC22FA05F2801841F1000173
:1001C00003FA0EF2801843FA05F359410EE0A5F147
:1001D00020050EF1200E012A03FA0EFC28BF4CF078
:1001E000020C43FA05F3C01851EBE37101F000452E
:1001F00007D54FF0000EDCF1000C7EEB00006EEB3B
:100200000101B1F5801F1BD3B1F5001F0CD34908C4
:100210005FEA30004FEA3C0C04F101044FEA44521B
:1002200012F5800F80F09A80BCF1004F08BF5FEAA2
:10023000500C50F1000041EB045141EA050130BD82
:100240005FEA4C0C404141EB0101013C28BFB1F594
:10025000801FE9D291F0000F04BF01460020B1FADF
:1002600081F308BF2033A3F10B03B3F120020CDAB2
:100270000C3208DD02F1140CC2F10C0201FA0CF090
:1002800021FA02F10CE002F11402D8BFC2F1200CF5
:1002900001FA02F120FA0CFCDCBF41EA0C019040AB
:1002A000E41AA2BF01EB0451294330BD6FEA0404F4
:1002B0001F3C1CDA0C340EDC04F11404C4F12002DF
:1002C00020FA04F001FA02F340EA030021FA04F3F1
:1002D00045EA030130BDC4F10C04C4F1200220FA48
:1002E00002F001FA04F340EA0300294630BD21FA86
:1002F00004F0294630BD94F0000F83F4801306BF4C
:1003000081F480110134013D4EE77FEA645C18BF3F
:100310007FEA655C29D094EA050F08BF90EA020FD6
:1003200005D054EA000C04BF1946104630BD91EACE
:10033000030F1EBF0021002030BD5FEA545C05D1D1
:100340004000494128BF41F0004130BD14F5800410
:100350003CBF01F5801130BD01F0004545F0FE4184
:1003600041F470014FF0000030BD7FEA645C1ABFB9
:10037000194610467FEA655C1CBF0B46024650EAF0
:10038000013406BF52EA033591EA030F41F400211C
:1003900030BD00BF90F0000F04BF0021704730B5A2
:1003A0004FF4806404F132044FF000054FF0000177
:1003B00050E700BF90F0000F04BF0021704730B538
:1003C0004FF4806404F1320410F0004548BF40420D
:1003D0004FF000013EE700BF42004FEAE2014FEA62
:1003E00031014FEA02701FBF12F07F4393F07F4F3D
:1003F00081F06051704732F07F4208BF704793F040
:100400007F4F04BF41F40021704730B54FF4607452
:1004100001F0004521F000411CE700BF50EA010255
:1004200008BF704730B54FF000050AE050EA0102FE
:1004300008BF704730B511F0004502D5404261EB6E
:1004400041014FF4806404F132045FEA915C3FF4AF
:10045000D8AE4FF003025FEADC0C18BF03325FEA4C
:10046000DC0C18BF033202EBDC02C2F1200300FAFD
:1004700003FC20FA02F001FA03FE40EA0E0021FA22
:1004800002F11444BDE600BF70B54FF0FF0C4CF410
:10049000E06C1CEA11541DBF1CEA135594EA0C0FC2
:1004A00095EA0C0F00F0DEF82C4481EA030621EAFD
:1004B0004C5123EA4C5350EA013518BF52EA033538
:1004C00041F4801143F4801338D0A0FB02CE4FF0EA
:1004D0000005E1FB02E506F00042E0FB03E54FF01A
:1004E0000006E1FB03569CF0000F18BF4EF0010E12
:1004F000A4F1FF04B6F5007F64F5407404D25FEA0E
:100500004E0E6D4146EB060642EAC62141EA5551C0
:100510004FEAC52040EA5E504FEACE2EB4F1FD0C02
:1005200088BFBCF5E06F1ED8BEF1004F08BF5FEA80
:10053000500E50F1000041EB045170BD06F0004632
:1005400046EA010140EA020081EA0301B4EB5C04DF
:10055000C2BFD4EB0C0541EA045170BD41F48011D7
:100560004FF0000E013C00F3AB8014F1360FDEBFFC
:10057000002001F0004170BDC4F10004203C35DAD8
:100580000C341BDC04F11404C4F1200500FA05F35B
:1005900020FA04F001FA05F240EA020001F00042FC
:1005A00021F0004110EBD37021FA04F642EB060172
:1005B0005EEA430E08BF20EAD37070BDC4F10C049C
:1005C000C4F1200500FA04F320FA05F001FA04F260
:1005D00040EA020001F0004110EBD37041F100014C
:1005E0005EEA430E08BF20EAD37070BDC4F1200557
:1005F00000FA05F24EEA020E20FA04F301FA05F2BF
:1006000043EA020321FA04F001F0004121FA04F266
:1006100020EA020000EBD3705EEA430E08BF20EA36
:10062000D37070BD94F0000F0FD101F00046400070
:1006300041EB010111F4801F08BF013CF7D041EAF2
:10064000060195F0000F18BF704703F000465200F6
:1006500043EB030313F4801F08BF013DF7D043EAC7
:100660000603704794EA0C0F0CEA135518BF95EA7D
:100670000C0F0CD050EA410618BF52EA4306D1D104
:1006800081EA030101F000414FF0000070BD50EA23
:10069000410606BF1046194652EA430619D094EAAD
:1006A0000C0F02D150EA013613D195EA0C0F05D197
:1006B00052EA03361CBF104619460AD181EA0301EB
:1006C00001F0004141F0FE4141F470014FF00000A3
:1006D00070BD41F0FE4141F4780170BD70B54FF03E
:1006E000FF0C4CF4E06C1CEA11541DBF1CEA1355BE
:1006F00094EA0C0F95EA0C0F00F0A7F8A4EB0504A0
:1007000081EA030E52EA03354FEA013100F0888096
:100710004FEA03334FF0805545EA131343EA12635F
:100720004FEA022245EA111545EA10654FEA002614
:100730000EF000419D4208BF964244F1FD0404F5CD
:10074000407402D25B084FEA3202B61A65EB030529
:100750005B084FEA32024FF480104FF4002CB6EBE6
:10076000020E75EB030E22BFB61A754640EA0C0066
:100770005B084FEA3202B6EB020E75EB030E22BFA6
:10078000B61A754640EA5C005B084FEA3202B6EBE7
:10079000020E75EB030E22BFB61A754640EA9C00A6
:1007A0005B084FEA3202B6EB020E75EB030E22BF76
:1007B000B61A754640EADC0055EA060E18D04FEA34
:1007C000051545EA16754FEA06164FEAC30343EAD4
:1007D00052734FEAC2025FEA1C1CC0D111F4801FA1
:1007E0000BD141EA00014FF000004FF0004CB6E79A
:1007F00011F4801F04BF01430020B4F1FD0C88BF39
:10080000BCF5E06F3FF6AFAEB5EB030C04BFB6EB43
:10081000020C5FEA500C50F1000041EB045170BD36
:100820000EF0004E4EEA113114EB5C04C2BFD4EB63
:100830000C0541EA045170BD41F480114FF0000EE7
:10084000013C90E645EA060E8DE60CEA135594EA63
:100850000C0F08BF95EA0C0F3FF43BAF94EA0C0F66
:100860000AD150EA01347FF434AF95EA0C0F7FF4DB
:1008700025AF104619462CE795EA0C0F06D152EA2F
:1008800003353FF4FDAE1046194622E750EA410613
:1008900018BF52EA43067FF4C5AE50EA41047FF424
:1008A0000DAF52EA43057FF4EBAE12E74A0011D2D6
:1008B00012F5001211D20DD56FF47873B3EB6252BA
:1008C0000ED44FEAC12343F0004343EA505323FAC6
:1008D00002F070474FF00000704750EA013002D13B
:1008E0004FF0FF3070474FF00000704780F000403D
:1008F00002E000BF81F0004142001FBF5FEA4103F8
:1009000092EA030F7FEA226C7FEA236C6AD04FEAF7
:100910001262D2EB1363C1BFD2184140484041403C
:10092000B8BF5B42192B88BF704710F0004F40F4EE
:10093000000020F07F4018BF404211F0004F41F40A
:10094000000121F07F4118BF494292EA030F3FD0D6
:10095000A2F1010241FA03FC10EB0C00C3F12003E9
:1009600001FA03F100F0004302D5494260EB400078
:10097000B0F5000F13D3B0F1807F06D340084FEAE3
:10098000310102F10102FE2A51D2B1F1004F40EBD8
:10099000C25008BF20F0010040EA03007047490040
:1009A00040EB0000013A28BFB0F5000FEDD2B0FADD
:1009B00080FCACF1080CB2EB0C0200FA0CF0AABF00
:1009C00000EBC25052421843BCBFD040184370479E
:1009D00092F0000F81F4000106BF80F400000132A4
:1009E000013BB5E74FEA41037FEA226C18BF7FEA7B
:1009F000236C21D092EA030F04D092F0000F08BFBD
:100A00000846704790EA010F1CBF0020704712F0A3
:100A10007F4F04D1400028BF40F00040704712F1E2
:100A200000723CBF00F50000704700F0004343F047
:100A3000FE4040F4000070477FEA226216BF08467D
:100A40007FEA23630146420206BF5FEA412390EA40
:100A5000010F40F4800070474FF0000304E000BF36
:100A600010F0004348BF40425FEA000C08BF7047E7
:100A700043F0964301464FF000001CE050EA0102AB
:100A800008BF70474FF000030AE000BF50EA0102C0
:100A900008BF704711F0004302D5404261EB4101AD
:100AA0005FEA010C02BF84460146002043F0B643D2
:100AB00008BFA3F18053A3F50003BCFA8CF2083AF7
:100AC000A3EBC25310DB01FA02FC634400FA02FC00
:100AD000C2F12002BCF1004F20FA02F243EB020007
:100AE00008BF20F00100704702F1200201FA02FC69
:100AF000C2F1200250EA4C0021FA02F243EB02005C
:100B000008BF20EADC7070474FF0FF0C1CEAD0529F
:100B10001EBF1CEAD15392EA0C0F93EA0C0F6FD060
:100B20001A4480EA010C400218BF5FEA41211ED03E
:100B30004FF0006343EA501043EA5111A0FB01312A
:100B40000CF00040B1F5000F3EBF490041EAD371FF
:100B50005B0040EA010062F17F02FD2A1DD8B3F17B
:100B6000004F40EBC25008BF20F00100704790F0EA
:100B7000000F0CF0004C08BF49024CEA502040EA3C
:100B800051207F3AC2BFD2F1FF0340EAC250704702
:100B900040F400004FF00003013A5DDC12F1190F40
:100BA000DCBF00F000407047C2F10002410021FAB2
:100BB00002F1C2F1200200FA02FC5FEA310040F1CA
:100BC000000053EA4C0308BF20EADC70704792F043
:100BD000000F00F0004C02BF400010F4000F013A7B
:100BE000F9D040EA0C0093F0000F01F0004C02BF76
:100BF000490011F4000F013BF9D041EA0C018FE7E5
:100C00000CEAD15392EA0C0F18BF93EA0C0F0AD0EA
:100C100030F0004C18BF31F0004CD8D180EA010010
:100C200000F00040704790F0000F17BF90F0004FA9
:100C3000084691F0000F91F0004F14D092EA0C0F8B
:100C400001D142020FD193EA0C0F03D14B0218BF1E
:100C5000084608D180EA010000F0004040F0FE4064
:100C600040F40000704740F0FE4040F44000704700
:100C70004FF0FF0C1CEAD0521EBF1CEAD15392EA7F
:100C80000C0F93EA0C0F69D0A2EB030280EA010C6F
:100C900049024FEA402037D04FF0805343EA111108
:100CA00043EA10130CF000408B4238BF5B0042F166
:100CB0007D024FF4000C8B4224BF5B1A40EA0C000B
:100CC000B3EB510F24BFA3EB510340EA5C00B3EB3D
:100CD000910F24BFA3EB910340EA9C00B3EBD10F2B
:100CE00024BFA3EBD10340EADC001B0118BF5FEA7D
:100CF0001C1CE0D1FD2A3FF650AF8B4240EBC250A6
:100D000008BF20F0010070470CF0004C4CEA502066
:100D10007F32C2BFD2F1FF0340EAC250704740F4B5
:100D200000004FF00003013A37E792F0000F00F0A7
:100D3000004C02BF400010F4000F013AF9D040EA25
:100D40000C0093F0000F01F0004C02BF490011F4B9
:100D5000000F013BF9D041EA0C0195E70CEAD153B1
:100D600092EA0C0F08D142027FF47DAF93EA0C0F98
:100D70007FF470AF084676E793EA0C0F04D14B027C
:100D80003FF44CAF08466EE730F0004C18BF31F02E
:100D9000004CCAD130F000427FF45CAF31F0004328
:100DA0007FF43CAF5FE700BF10B5054C237833B943
:100DB000044B13B10448AFF300800123237010BD2E
:100DC0001C000020000000005C19000808B5034B5F
:100DD0001BB103490348AFF3008008BD00000000C9
:100DE000200000205C19000810B1012806D07047CF
:100DF000054A136843F4806313607047034A13681D
:100E000043F4806313607047005400400058004072
:100E100008B5034628B1012809D01846FFF7E4FFBA
:100E200008BD06490A6842F001020A60F5E7044974
:100E30000A6842F001020A60EFE700BF0054004078
:100E400000580040000000002DE9F04387B00F4635
:100E50009046054660B1012840F04581AA4C2368C0
:100E600023F0010323602DB1012D1ED001263BE1AB
:100E7000A64CF4E7B8F1000F0BD042238DF81030E8
:100E800008228DF811208DF8043009238DF80530E3
:100E900016E042238DF8103006228DF811208DF8CF
:100EA000043007238DF805300AE042238DF8103016
:100EB0000A228DF811208DF804300B238DF80530AF
:100EC0000C238DF80F3003238DF80D3001238DF89E
:100ED0000E3003A800F02CFA08B1012604E10C231F
:100EE0008DF8033003238DF8013001238DF8023093
:100EF000684600F01DFA0646002840F0F9803DB92A
:100F0000B8F1000F09D0824A536843F002035360DE
:100F10004DB1012D47D00126E6E07D4A536823F00C
:100F200002035360F4E77B4B002283F81F234FF04A
:100F30000041196083F8202301225A60764BDA6958
:100F400042F40012DA611A6922F400121A6163682D
:100F500023F400636360636823F480636360636801
:100F600043F400736360636843F480736360636891
:100F700023F03F036360684B5B6803F46053B3F591
:100F8000405F43D023D8B3F5005F49D0B3F5205F6D
:100F900050D16368614A12686149A1FB021243EAB9
:100FA000125363601FE05B4B002283F82123022170
:100FB000596083F8222304225A60574BDA6942F4BD
:100FC0008002DA611A6922F480021A61BFE7B3F580
:100FD000605F2FD16368514A12685149A1FB021228
:100FE00043EA92536360606840F03F00FFF734FDCE
:100FF000494A936943F009039361236A23F03F034D
:1010000023620FB3012F4DD001266DE06368434A80
:1010100012684349A1FB021243EA52536360E2E7BC
:1010200063683E4A12683E49A1FB021243EAD2437A
:101030006360D8E76368394A12683949A1FB021234
:1010400043EA92436360CEE7E36923F40043E3613C
:10105000FFF7C2F90022334BFFF716FAFFF726FC21
:10106000E061236A43F025032362E369E3612368B7
:1010700013F4807FFBD1236813F4007FF7D123683A
:1010800023F080032360236823F040032360236858
:1010900023F0020323603223A360E3602846FFF7B6
:1010A000B7FE21E0E36943F40043E361E36923F41D
:1010B0008043E361E369FFF78FF9804689460EA319
:1010C000D3E90023FFF7E0F9FFF7F0FBE0610CA3A1
:1010D000D3E9002340464946FFF7D6F9FFF7E6FB80
:1010E00001302062C3E70126304607B0BDE8F08337
:1010F0000126F9E7AFF30080ABAAAAAAAAAAEA3FA1
:10110000333333333333D33F00580040005400406F
:101110000000014000E100E0001002401800002043
:1011200083DE1B4300001440012800D97047034AA6
:10113000136843F480731360F8E700BF0054004065
:1011400018B101280BD0012070470A4B5B6913F0DE
:10115000010FFAD10A78074B1A6100207047064B3D
:101160005B6913F0010FFAD10A78034B1A61002072
:10117000704700BF005400400058004008B5114BB4
:1011800000221A7004E00F4A13780133DBB21370A7
:101190000C4B1B78DBB2052B0FD80B4B5A69094B54
:1011A0001B78DBB20949CB5C1A42ECD0054B1B78AB
:1011B000DBB2CA5C064B1A70E5E7064B1B6803B14D
:1011C000984708BD43000020005400401000002054
:1011D000420000203C00002008B5124B00221A708B
:1011E00004E0104A13780133DBB213700D4B1B7807
:1011F000DBB20D2B10D80C4B5A690A4B19780B4BEC
:1012000033F811301A42ECD0064B1A78074B33F8FA
:101210001220074B1A80E4E7064B1B6803B198477E
:1012200008BD00BF43000020005400400000002023
:10123000400000203800002008B53B4B1A6842F4FB
:1012400080321A601A6822F480221A60364B1B68BA
:1012500013F4003FFAD0354B1A6842F010021A60BE
:101260001A6822F008021A601A6822F007021A604F
:101270001A6842F002021A60A3F580531A6822F03D
:1012800080721A605A6822F0E0625A605A6822F44A
:1012900080025A605A6802F400325A605A6842F476
:1012A00080325A605A6822F460525A605A6842F496
:1012B00000525A605A6822F4E0625A605A6842F456
:1012C00080625A605A6822F0F0025A605A6822F02E
:1012D00003025A605A6842F002025A605A6822F0C9
:1012E000F0025A605A6842F440425A605A6822F446
:1012F00070125A605A6842F4E0125A601A6842F05A
:1013000080721A60084B1B6813F0007FFAD0064BFE
:101310005B6813F0080FFAD0034A136823F0010347
:10132000136000F087FA08BD001002400020024060
:101330000379A3F14102042A53D8DFE802F0033A0B
:101340003D404300284A826030B44279072A3CD8A5
:1013500081684FF0000C254DAA69413B042404FA32
:1013600003F31343AB61C3780C2B01D0082B04D1DA
:101370001E4A936943F0010393610A684379A3EB22
:101380000C039B000F2404FA03F322EA03030B600F
:101390000C68C378427813434279A2EB0C029200A6
:1013A000934023430B60C378082B13D0002030BC3C
:1013B00070470F4A8260C7E70E4A8260C4E70E4A50
:1013C0008260C1E70D4A8260BEE7816804314FF058
:1013D000080CC0E78378417982688B40D360002095
:1013E000E5E70120704700BF0008014000100240FF
:1013F000000C0140001001400014014000180140A1
:1014000001290AD858B1017042790123934009019A
:1014100082688B40136100207047012070470120D3
:1014200070470000014B1888704700BF4E00002035
:101430004FF0E022136943F001031361704700008D
:1014400008B5124B1880B0F57A7F02D84FF47A7243
:101450001A8000F0EFF90D4B1A880D4B1B68B3FB97
:10146000F2F3013BB3F1807F0AD24FF0E0225361E7
:10147000084BF02183F823100023936107231361A5
:10148000FFF7D6FF044B00221A6008BD4E00002073
:101490001800002000ED00E048000020002301E0DB
:1014A0000133DBB2084A12789A4205D9074A52F84A
:1014B00023208242F4D105E0511C034B1970034BE9
:1014C00043F82200704700BF4C000020500000206D
:1014D00008B50B4B00221A7007E00A4A52F8233075
:1014E0009847074A137801331370054B1B78064A57
:1014F00012789A42F1D8054A13680133136008BD87
:1015000044000020500000204C0000204800002033
:1015100008B5FFF791FE4FF47A70FFF791FF00F0E6
:101520004DF9002000F070F9012000F033F84FF47D
:101530007A7000F0C7F800F027F801220021084671
:10154000FFF782FC0020FFF7EFFD06490020FFF7C0
:10155000F7FD054B5B6913F0020FFAD000F026F897
:10156000FCE700BF16000020005400400023034A9F
:101570001370034A1370034A13707047540100201C
:1015800055010020D2000020014B01221A70704743
:10159000D1000020014B1870704700BFD000002020
:1015A000B0FBF1F301FB1303C01A7047314B1B78FA
:1015B000002B5ED010B511E001212F48FFF720FF6E
:1015C00021E02E4A13780133DBB213702C4A1268E3
:1015D000934230D2274B1B78002B49D0254A1378F1
:1015E000013BDBB21370274B1B68002BE9D1264B64
:1015F0001B78264AD25C214B1B789A42DCD9002109
:101600001D48FFF7FDFE1D4A13780133DBB213704E
:101610001B4A12689342DDD31B4A13780133DBB2B5
:101620001370164A00211170194A12789342D1D3CF
:10163000154B1970CEE7114B00221A70154C21780A
:1016400001F001010C48FFF7DBFE23685B08236013
:101650000D4A13780133DBB213700D4A12789342AE
:10166000B8D3094B00221A70064B1A682260B1E702
:1016700010BD7047D2000020D80000205501002086
:10168000EC000020D400002054010020F0000020D5
:1016900056010020E400002008B5074B1B7823B159
:1016A000064A13780133DBB21370054B1B7803B184
:1016B00008BDFFF77BFFFBE7D1000020D200002030
:1016C000D00000202DE9F8430446FFF7ABFE0646A4
:1016D00040F6B7339C4205D8B4F5FA7F04D84FF4EE
:1016E000FA7401E040F6B8342E4B1B6863BB2E4BF6
:1016F00064221A702C4B1D7829462046FFF750FFB4
:1017000084B22A4B1C803046FFF7A6F906462846CD
:10171000FFF7A2F9814601463046FFF7A9FA0646CF
:101720002046FFF799F901463046FFF7EDF9FEF73D
:1017300053FE00221E4BFEF7D1FFFFF7B7F880469D
:101740001C4B1860002426E0174B20221A70D1E7AA
:101750002046FFF781F94946FFF78AFAFEF73CFE7B
:1017600002460B46FEF7DAFC06460F464046FFF7F8
:1017700073F9FEF731FE02460B4630463946FEF756
:1017800083FEFFF793F8C3B20B490B552A1B013AAE
:101790008B540134A4B2B4EB550FD9D3FFF7E6FE56
:1017A000BDE8F883D400002056010020E8000020A6
:1017B00000408F40EC000020F000002010B50E48E3
:1017C000432303710D2343710023C370032343702C
:1017D000FFF7AEFD10B10124204610BD04464FF4C2
:1017E0007A70FFF76FFF0023044A1360044A136006
:1017F0000448FFF753FEEFE7D8000020D400002094
:10180000E40000209916000808B5044B1860044B4A
:101810001888FFF757FFFFF7A9FE08BDD400002086
:10182000E8000020FEE7FEE7FEE7FEE770477047AE
:10183000704770471F4B5B6803F00C03042B14D0F8
:10184000082B16D01BB11C4B1C4A1A6002E01A4B25
:101850001A4A1A60174B5B68C3F30313184AD15C2A
:10186000154A1368CB4013607047134B134A1A6034
:10187000F0E7104A53685268C3F38343023312F40B
:10188000803F05D10F4A02FB03F30B4A1360E1E7E7
:10189000084A526812F4003F05D00A4A02FB03F3DB
:1018A000054A1360D6E7054A02FB03F3024A1360B8
:1018B000D0E700BF001002401800002000127A009C
:1018C0007419000800093D000C480D490D4A002319
:1018D00002E0D458C4500433C4188C42F9D30A4AE5
:1018E0000A4C002301E013600432A242FBD3FFF74D
:1018F000A0FF00F00FF8FFF70BFE7047000000207C
:101900001C0000208C1900081C0000205801002039
:10191000FEE7000070B500260C4D0D4C641BA410B2
:10192000A64209D100F01AF800260A4D0A4C641BA1
:10193000A410A64205D170BD55F8043B9847013666
:10194000EEE755F8043B98470136F2E784190008A2
:10195000841900088419000888190008F8B500BF28
:10196000F8BC08BC9E467047F8B500BFF8BC08BC80
:041970009E467047D8
:10197400000000000000000001020304060708093B
:04198400CD0D00087D
:04198800A90D00089D
:10198C00000100020004000800100040008000006C
:0C199C0001020804804055000024F40003
:04000005080018C90E
:00000001FF
