:020000040800F2
:10000000005000202D160008891500088B150008E7
:10001000751600088D1500088F15000800000000F7
:100020000000000000000000000000009115000822
:1000300093150008000000009515000865100008E1
:100040007516000875160008751600087516000864
:100050007516000875160008751600087516000854
:100060007516000875160008751600087516000844
:100070007516000875160008751600087516000834
:100080007516000875160008751600087516000824
:100090007516000875160008751600087516000814
:1000A0007516000875160008751600087516000804
:1000B00075160008751600087516000875160008F4
:1000C00075160008751600087516000875160008E4
:1000D00075160008751600087516000875160008D4
:1000E0007516000875160008751600080000000057
:1000F0000000000000000000000000000000000000
:0C01000000000000000000005FF808F1A3
:10010C0081F0004102E000BF83F0004330B54FEABC
:10011C0041044FEA430594EA050F08BF90EA020F29
:10012C001FBF54EA000C55EA020C7FEA645C7FEABC
:10013C00655C00F0E2804FEA5454D4EB5555B8BFDF
:10014C006D420CDD2C4480EA020281EA030382EA50
:10015C00000083EA010180EA020281EA0303362DE2
:10016C0088BF30BD11F0004F4FEA01314FF4801CB5
:10017C004CEA113102D0404261EB410113F0004FC7
:10018C004FEA03334CEA133302D0524263EB43037E
:10019C0094EA050F00F0A780A4F10104D5F1200E1C
:1001AC000DDB02FA0EFC22FA05F2801841F1000177
:1001BC0003FA0EF2801843FA05F359410EE0A5F14B
:1001CC0020050EF1200E012A03FA0EFC28BF4CF07C
:1001DC00020C43FA05F3C01851EBE37101F0004532
:1001EC0007D54FF0000EDCF1000C7EEB00006EEB3F
:1001FC000101B1F5801F1BD3B1F5001F0CD34908C9
:10020C005FEA30004FEA3C0C04F101044FEA44521F
:10021C0012F5800F80F09A80BCF1004F08BF5FEAA6
:10022C00500C50F1000041EB045141EA050130BD86
:10023C005FEA4C0C404141EB0101013C28BFB1F598
:10024C00801FE9D291F0000F04BF01460020B1FAE3
:10025C0081F308BF2033A3F10B03B3F120020CDAB6
:10026C000C3208DD02F1140CC2F10C0201FA0CF094
:10027C0021FA02F10CE002F11402D8BFC2F1200CF9
:10028C0001FA02F120FA0CFCDCBF41EA0C019040AF
:10029C00E41AA2BF01EB0451294330BD6FEA0404F8
:1002AC001F3C1CDA0C340EDC04F11404C4F12002E3
:1002BC0020FA04F001FA02F340EA030021FA04F3F5
:1002CC0045EA030130BDC4F10C04C4F1200220FA4C
:1002DC0002F001FA04F340EA0300294630BD21FA8A
:1002EC0004F0294630BD94F0000F83F4801306BF50
:1002FC0081F480110134013D4EE77FEA645C18BF44
:10030C007FEA655C29D094EA050F08BF90EA020FDA
:10031C0005D054EA000C04BF1946104630BD91EAD2
:10032C00030F1EBF0021002030BD5FEA545C05D1D5
:10033C004000494128BF41F0004130BD14F5800414
:10034C003CBF01F5801130BD01F0004545F0FE4188
:10035C0041F470014FF0000030BD7FEA645C1ABFBD
:10036C00194610467FEA655C1CBF0B46024650EAF4
:10037C00013406BF52EA033591EA030F41F4002120
:10038C0030BD00BF90F0000F04BF0021704730B5A6
:10039C004FF4806404F132044FF000054FF000017B
:1003AC0050E700BF90F0000F04BF0021704730B53C
:1003BC004FF4806404F1320410F0004548BF404211
:1003CC004FF000013EE700BF42004FEAE2014FEA66
:1003DC0031014FEA02701FBF12F07F4393F07F4F41
:1003EC0081F06051704732F07F4208BF704793F044
:1003FC007F4F04BF41F40021704730B54FF4607457
:10040C0001F0004521F000411CE700BF50EA010259
:10041C0008BF704730B54FF000050AE050EA010202
:10042C0008BF704730B511F0004502D5404261EB72
:10043C0041014FF4806404F132045FEA915C3FF4B3
:10044C00D8AE4FF003025FEADC0C18BF03325FEA50
:10045C00DC0C18BF033202EBDC02C2F1200300FA01
:10046C0003FC20FA02F001FA03FE40EA0E0021FA26
:10047C0002F11444BDE600BF70B54FF0FF0C4CF414
:10048C00E06C1CEA11541DBF1CEA135594EA0C0FC6
:10049C0095EA0C0F00F0DEF82C4481EA030621EA01
:1004AC004C5123EA4C5350EA013518BF52EA03353C
:1004BC0041F4801143F4801338D0A0FB02CE4FF0EE
:1004CC000005E1FB02E506F00042E0FB03E54FF01E
:1004DC000006E1FB03569CF0000F18BF4EF0010E16
:1004EC00A4F1FF04B6F5007F64F5407404D25FEA12
:1004FC004E0E6D4146EB060642EAC62141EA5551C5
:10050C004FEAC52040EA5E504FEACE2EB4F1FD0C06
:10051C0088BFBCF5E06F1ED8BEF1004F08BF5FEA84
:10052C00500E50F1000041EB045170BD06F0004636
:10053C0046EA010140EA020081EA0301B4EB5C04E3
:10054C00C2BFD4EB0C0541EA045170BD41F48011DB
:10055C004FF0000E013C00F3AB8014F1360FDEBF00
:10056C00002001F0004170BDC4F10004203C35DADC
:10057C000C341BDC04F11404C4F1200500FA05F35F
:10058C0020FA04F001FA05F240EA020001F0004200
:10059C0021F0004110EBD37021FA04F642EB060176
:1005AC005EEA430E08BF20EAD37070BDC4F10C04A0
:1005BC00C4F1200500FA04F320FA05F001FA04F264
:1005CC0040EA020001F0004110EBD37041F1000150
:1005DC005EEA430E08BF20EAD37070BDC4F120055B
:1005EC0000FA05F24EEA020E20FA04F301FA05F2C3
:1005FC0043EA020321FA04F001F0004121FA04F26B
:10060C0020EA020000EBD3705EEA430E08BF20EA3A
:10061C00D37070BD94F0000F0FD101F00046400074
:10062C0041EB010111F4801F08BF013CF7D041EAF6
:10063C00060195F0000F18BF704703F000465200FA
:10064C0043EB030313F4801F08BF013DF7D043EACB
:10065C000603704794EA0C0F0CEA135518BF95EA81
:10066C000C0F0CD050EA410618BF52EA4306D1D108
:10067C0081EA030101F000414FF0000070BD50EA27
:10068C00410606BF1046194652EA430619D094EAB1
:10069C000C0F02D150EA013613D195EA0C0F05D19B
:1006AC0052EA03361CBF104619460AD181EA0301EF
:1006BC0001F0004141F0FE4141F470014FF00000A7
:1006CC0070BD41F0FE4141F4780170BD70B54FF042
:1006DC00FF0C4CF4E06C1CEA11541DBF1CEA1355C2
:1006EC0094EA0C0F95EA0C0F00F0A7F8A4EB0504A4
:1006FC0081EA030E52EA03354FEA013100F088809B
:10070C004FEA03334FF0805545EA131343EA126363
:10071C004FEA022245EA111545EA10654FEA002618
:10072C000EF000419D4208BF964244F1FD0404F5D1
:10073C00407402D25B084FEA3202B61A65EB03052D
:10074C005B084FEA32024FF480104FF4002CB6EBEA
:10075C00020E75EB030E22BFB61A754640EA0C006A
:10076C005B084FEA3202B6EB020E75EB030E22BFAA
:10077C00B61A754640EA5C005B084FEA3202B6EBEB
:10078C00020E75EB030E22BFB61A754640EA9C00AA
:10079C005B084FEA3202B6EB020E75EB030E22BF7A
:1007AC00B61A754640EADC0055EA060E18D04FEA38
:1007BC00051545EA16754FEA06164FEAC30343EAD8
:1007CC0052734FEAC2025FEA1C1CC0D111F4801FA5
:1007DC000BD141EA00014FF000004FF0004CB6E79E
:1007EC0011F4801F04BF01430020B4F1FD0C88BF3D
:1007FC00BCF5E06F3FF6AFAEB5EB030C04BFB6EB48
:10080C00020C5FEA500C50F1000041EB045170BD3A
:10081C000EF0004E4EEA113114EB5C04C2BFD4EB67
:10082C000C0541EA045170BD41F480114FF0000EEB
:10083C00013C90E645EA060E8DE60CEA135594EA67
:10084C000C0F08BF95EA0C0F3FF43BAF94EA0C0F6A
:10085C000AD150EA01347FF434AF95EA0C0F7FF4DF
:10086C0025AF104619462CE795EA0C0F06D152EA33
:10087C0003353FF4FDAE1046194622E750EA410617
:10088C0018BF52EA43067FF4C5AE50EA41047FF428
:10089C000DAF52EA43057FF4EBAE12E74A0011D2DA
:1008AC0012F5001211D20DD56FF47873B3EB6252BE
:1008BC000ED44FEAC12343F0004343EA505323FACA
:1008CC0002F070474FF00000704750EA013002D13F
:1008DC004FF0FF3070474FF00000704780F0004041
:1008EC0002E000BF81F0004142001FBF5FEA4103FC
:1008FC0092EA030F7FEA226C7FEA236C6AD04FEAFC
:10090C001262D2EB1363C1BFD21841404840414040
:10091C00B8BF5B42192B88BF704710F0004F40F4F2
:10092C00000020F07F4018BF404211F0004F41F40E
:10093C00000121F07F4118BF494292EA030F3FD0DA
:10094C00A2F1010241FA03FC10EB0C00C3F12003ED
:10095C0001FA03F100F0004302D5494260EB40007C
:10096C00B0F5000F13D3B0F1807F06D340084FEAE7
:10097C00310102F10102FE2A51D2B1F1004F40EBDC
:10098C00C25008BF20F0010040EA03007047490044
:10099C0040EB0000013A28BFB0F5000FEDD2B0FAE1
:1009AC0080FCACF1080CB2EB0C0200FA0CF0AABF04
:1009BC0000EBC25052421843BCBFD04018437047A2
:1009CC0092F0000F81F4000106BF80F400000132A8
:1009DC00013BB5E74FEA41037FEA226C18BF7FEA7F
:1009EC00236C21D092EA030F04D092F0000F08BFC1
:1009FC000846704790EA010F1CBF0020704712F0A8
:100A0C007F4F04D1400028BF40F00040704712F1E6
:100A1C0000723CBF00F50000704700F0004343F04B
:100A2C00FE4040F4000070477FEA226216BF084681
:100A3C007FEA23630146420206BF5FEA412390EA44
:100A4C00010F40F4800070474FF0000304E000BF3A
:100A5C0010F0004348BF40425FEA000C08BF7047EB
:100A6C0043F0964301464FF000001CE050EA0102AF
:100A7C0008BF70474FF000030AE000BF50EA0102C4
:100A8C0008BF704711F0004302D5404261EB4101B1
:100A9C005FEA010C02BF84460146002043F0B643D6
:100AAC0008BFA3F18053A3F50003BCFA8CF2083AFB
:100ABC00A3EBC25310DB01FA02FC634400FA02FC04
:100ACC00C2F12002BCF1004F20FA02F243EB02000B
:100ADC0008BF20F00100704702F1200201FA02FC6D
:100AEC00C2F1200250EA4C0021FA02F243EB020060
:100AFC0008BF20EADC7070474FF0FF0C1CEAD052A4
:100B0C001EBF1CEAD15392EA0C0F93EA0C0F6FD064
:100B1C001A4480EA010C400218BF5FEA41211ED042
:100B2C004FF0006343EA501043EA5111A0FB01312E
:100B3C000CF00040B1F5000F3EBF490041EAD37103
:100B4C005B0040EA010062F17F02FD2A1DD8B3F17F
:100B5C00004F40EBC25008BF20F00100704790F0EE
:100B6C00000F0CF0004C08BF49024CEA502040EA40
:100B7C0051207F3AC2BFD2F1FF0340EAC250704706
:100B8C0040F400004FF00003013A5DDC12F1190F44
:100B9C00DCBF00F000407047C2F10002410021FAB6
:100BAC0002F1C2F1200200FA02FC5FEA310040F1CE
:100BBC00000053EA4C0308BF20EADC70704792F047
:100BCC00000F00F0004C02BF400010F4000F013A7F
:100BDC00F9D040EA0C0093F0000F01F0004C02BF7A
:100BEC00490011F4000F013BF9D041EA0C018FE7E9
:100BFC000CEAD15392EA0C0F18BF93EA0C0F0AD0EF
:100C0C0030F0004C18BF31F0004CD8D180EA010014
:100C1C0000F00040704790F0000F17BF90F0004FAD
:100C2C00084691F0000F91F0004F14D092EA0C0F8F
:100C3C0001D142020FD193EA0C0F03D14B0218BF22
:100C4C00084608D180EA010000F0004040F0FE4068
:100C5C0040F40000704740F0FE4040F44000704704
:100C6C004FF0FF0C1CEAD0521EBF1CEAD15392EA83
:100C7C000C0F93EA0C0F69D0A2EB030280EA010C73
:100C8C0049024FEA402037D04FF0805343EA11110C
:100C9C0043EA10130CF000408B4238BF5B0042F16A
:100CAC007D024FF4000C8B4224BF5B1A40EA0C000F
:100CBC00B3EB510F24BFA3EB510340EA5C00B3EB41
:100CCC00910F24BFA3EB910340EA9C00B3EBD10F2F
:100CDC0024BFA3EBD10340EADC001B0118BF5FEA81
:100CEC001C1CE0D1FD2A3FF650AF8B4240EBC250AA
:100CFC0008BF20F0010070470CF0004C4CEA50206B
:100D0C007F32C2BFD2F1FF0340EAC250704740F4B9
:100D1C0000004FF00003013A37E792F0000F00F0AB
:100D2C00004C02BF400010F4000F013AF9D040EA29
:100D3C000C0093F0000F01F0004C02BF490011F4BD
:100D4C00000F013BF9D041EA0C0195E70CEAD153B5
:100D5C0092EA0C0F08D142027FF47DAF93EA0C0F9C
:100D6C007FF470AF084676E793EA0C0F04D14B0280
:100D7C003FF44CAF08466EE730F0004C18BF31F032
:100D8C00004CCAD130F000427FF45CAF31F000432C
:100D9C007FF43CAF5FE700BF10B5054C237833B947
:100DAC00044B13B10448AFF300800123237010BD32
:100DBC0068000020000000005018000808B5034B24
:100DCC001BB103490348AFF3008008BD00000000CD
:100DDC006C0000205018000838B58578A5F1410347
:100DEC00DBB2042B00F28A8004460378032B00F25A
:100DFC0087804378072B00F28580C378102B00F294
:100E0C0083800C2000F056FC413D042D0BD8DFE80C
:100E1C0005F003333B434B003C4A936943F0040316
:100E2C0093613B4B83602378437063788370E378E2
:100E3C000371A278C27000220270072B3CD8846820
:100E4C0022689B000F2101FA03F322EA03032360BB
:100E5C00846823684278017989008A4013432360AF
:100E6C0084682168837823F00403027992000232AB
:100E7C0093400B43236042E0244A936943F00803F8
:100E8C009361244B8360CEE7204A936943F01003AF
:100E9C009361214B8360C6E71C4A936943F020039E
:100EAC0093611E4B8360BEE7184A936943F040037D
:100EBC0093611B4B8360B6E784686268083B9B00B8
:100ECC000F2101FA03F322EA03036360846862686A
:100EDC0041780379083B9B0001FA03F313436360E9
:100EEC0084686168837823F004020379083B9B00D3
:100EFC00023302FA03F30B43636000E0002038BDB9
:100F0C000020FCE70020FAE70020F8E70010024080
:100F1C0000080140000C0140001001400014014089
:100F2C00001801400A4639B90023037001790123E6
:100F3C008B4081681B040B61012A00D07047012390
:100F4C000370017982688B401361F7E7014B1888B5
:100F5C00704700BF0E0100204FF0E022136923F010
:100F6C00010313617047000008B5124B1880B0F5EF
:100F7C007A7F02D84FF47A721A8000F007FB0D4B7F
:100F8C001A880D4B1B68B3FBF2F3013BB3F1807F66
:100F9C000AD24FF0E0225361084BF02183F8231062
:100FAC000023936107231361FFF7D6FF044B002244
:100FBC001A6008BD0E0100200000002000ED00E0CA
:100FCC00840000204FF0E022136943F00103136109
:100FDC0070470000002301E00133DBB2084A1278AD
:100FEC009A4205D9074A52F823208242F4D105E0EF
:100FFC00511C034B1970034B43F82200704700BF80
:10100C00880000208C000020F8B50546104B1C68A9
:10101C00FFF79CFFFFF718FDFFF7D6F902460B46CA
:10102C0000200C49FFF752FB06460F462846FFF7F7
:10103C000BFDFFF7C9F902460B4630463946FFF760
:10104C001BFAFFF72BFC20448442FDD9F8BD00BFEE
:10105C008400002000408F4008B50B4B00221A7012
:10106C0007E00A4A52F823309847074A13780133AD
:10107C001370054B1B78064A12789342F1D3054A3C
:10108C0013680133136008BD0C0100208C00002094
:10109C00880000208400002008B5374B1A681A60BD
:1010AC00354B1B6813F0020FFAD0334B1A6842F41D
:1010BC0080321A601A6822F480221A602E4B1B6848
:1010CC0013F4003FFAD02D4B1A6842F010021A604C
:1010DC001A6822F008021A601A6822F007021A60D5
:1010EC001A6842F002021A60A3F580531A6822F0C3
:1010FC0080721A605A6822F0E0625A605A6822F4D0
:10110C0080025A605A6842F480325A605A6842F43B
:10111C0040425A605A6822F460525A605A6822F46B
:10112C00E0625A605A6842F480625A605A6822F44B
:10113C0070125A605A6842F4E0125A601A6842F00F
:10114C0080721A600C4B1B6813F0007FFAD00A4BAC
:10115C005A6822F0F0025A605A6822F003025A6070
:10116C005A6842F002025A60034B5B6813F0080F96
:10117C00FAD000F00BFA08BD00100240002002402B
:10118C0010B5FFF789FF4FF47A70FFF7EDFEFFF70C
:10119C0019FF00F0B7F970B100F046F820BB00F071
:1011AC00DFF9002000F096F84FF47A7000F02EF979
:1011BC0000F08AF818E000F0D3F9002000F08AF86B
:1011CC004FF47A7000F022F900F07EF8E4E700F0BA
:1011DC001BF8204600F05CF84FF4FA70FFF714FF90
:1011EC000134E4B2072CF2D90024FBE7044B1B7842
:1011FC0023B1044A13780133DBB21370704700BF7C
:10120C00300100203101002010B5002407E000213E
:10121C00044B53F82400FFF785FE0134E4B2072C8D
:10122C00F5D910BD1001002010B588B00024072C92
:10123C001BD8134B1A5D08AB03EB840303F81E2C6D
:10124C00104A125D03F81D2C042203F81F2C0222F5
:10125C0003F8202C0DEB8400FFF7BEFD0A4B43F87E
:10126C00240050B10134E4B2E1E70848FFF7B2FEC4
:10127C00FFF7CAFF002008B010BD0120FBE700BF3C
:10128C00701800086818000810010020F9110008F7
:10129C00072800D9704708B50121034B53F82000EB
:1012AC00FFF740FE08BD00BF100100200023034AD9
:1012BC001370034A1370034A13707047B401002073
:1012CC00AC01002032010020014B01221A70704742
:1012DC009C010020014B1870704700BFA401002036
:1012EC00B0FBF1F301FB1301401A7047334B1B7831
:1012FC00002B61D010B512E00021314B1868FFF7BC
:10130C0011FE22E02F4A13780133DBB213702E4A00
:10131C001268934231D2294B1B78002B4BD0274AB1
:10132C001378013BDBB21370284B1B68002BE9D1FF
:10133C00274B1B78274AD25C224B1B789A42DBD96D
:10134C0001211F4B1868FFF7EDFD1E4A137801337E
:10135C00DBB213701C4A12689342DCD31C4A13781C
:10136C000133DBB21370174A002111701A4A12783C
:10137C009342D0D3164B1970CDE7124B00221A7042
:10138C00164C217801F001010D4B1868FFF7CAFDCE
:10139C0023685B0823600E4A13780133DBB21370A9
:1013AC000D4A12789342B6D3094B00221A70074BA0
:1013BC001A682260AFE710BD704700BF32010020F1
:1013CC00A0010020AC010020B001002098010020F9
:1013DC00B401002034010020B5010020A801002038
:1013EC0008B5074B1B7823B1064A13780133DBB2DF
:1013FC001370054B1B7803B108BDFFF777FFFBE7B4
:10140C009C01002032010020A40100202DE9F843AA
:10141C000446FFF79BFD064640F6B7339C4205D8C1
:10142C00B4F5FA7F04D84FF4FA7401E040F6B834FE
:10143C002E4B1B6863BB2E4B64221A702C4B1D78F1
:10144C0029462046FFF74CFF84B22A4B1C803046BD
:10145C00FFF7FAFA06462846FFF7F6FA81460146E8
:10146C003046FFF7FDFB06462046FFF7EDFA014636
:10147C003046FFF741FBFEF7A7FF00221E4BFFF79C
:10148C0025F9FFF70BFA80461C4B1860002426E068
:10149C00174B20221A70D1E72046FFF7D5FA4946A0
:1014AC00FFF7DEFBFEF790FF02460B46FEF72EFE23
:1014BC0006460F464046FFF7C7FAFEF785FF024681
:1014CC000B4630463946FEF7D7FFFFF7E7F9C3B2B4
:1014DC000B490B552A1B013A8B540134A4B2B4EBC3
:1014EC00550FD9D3FFF7E2FEBDE8F8839801002031
:1014FC00B50100209E01002000408F40B00100206B
:10150C003401002010B582B043238DF806300D2332
:10151C008DF8073004238DF8053002238DF8043044
:10152C0001A8FFF759FC0A4B186070B14FF47A70A0
:10153C00FFF76CFF0024074B1C60074B1C6007482F
:10154C00FFF748FD204602B010BD0120FBE700BFAD
:10155C00A001002098010020A8010020ED13000834
:10156C0008B5044B1860044B1888FFF74FFFFFF7C2
:10157C009DFE08BD980100209E010020FEE7FEE7BD
:10158C00FEE7FEE770477047704770471F4B5B687C
:10159C0003F00C03042B14D0082B16D01BB11C4BDE
:1015AC001C4A1A6002E01A4B1A4A1A60174B5B6805
:1015BC00C3F30313184AD15C154A1368CB4013606C
:1015CC007047134B134A1A60F0E7104A536852687D
:1015DC00C3F38343023312F4803F05D10F4A02FB5D
:1015EC0003F30B4A1360E1E7084A526812F4003F18
:1015FC0005D00A4A02FB03F3054A1360D6E7054AF5
:10160C0002FB03F3024A1360D0E700BF0010024054
:10161C000000002000127A007818000800093D0034
:10162C000C480D490D4A002302E0D458C450043331
:10163C00C4188C42F9D30A4A0A4C002301E0136007
:10164C000432A242FBD3FFF7A0FF00F00FF8FFF724
:10165C0097FD7047000000206800002098180008D3
:10166C0068000020CC010020FEE7000070B50026C9
:10167C000C4D0D4C641BA410A64209D100F0E2F8ED
:10168C0000260A4D0A4C641BA410A64205D170BD5D
:10169C0055F8043B98470136EEE755F8043B98475C
:1016AC000136F2E79018000890180008901800080E
:1016BC0094180008024B0146186800F023B800BFCC
:1016CC000400002070B50E4E0C463168054611B969
:1016DC0000F08CF830602146284600F087F8431C57
:1016EC000AD0C41C24F00304A04207D0211A2846B7
:1016FC0000F07CF8013001D14FF0FF34204670BD72
:10170C00BC0100202DE9F041CD1C25F00305083566
:10171C000C2D38BF0C25002D074601DBA94205D93D
:10172C000C2300263B603046BDE8F0812E4E00F0C5
:10173C006DF833681C4634BB29463846FFF7C2FFA8
:10174C00431C04464DD134682646002E40D12368F4
:10175C003146384604EB030800F048F880453AD18E
:10176C00216803356D1A25F0030508350C2D38BF9B
:10177C000C2538462946FFF7A5FF01302BD02368EE
:10178C002B4423600EE02268521B1ED40B2A16D960
:10179C006119A342256018BF5960636808BF3160A6
:1017AC0062514B60384604F10B0600F035F826F018
:1017BC000706231DF21AB6D09B1BA350B3E7626831
:1017CC00A3420CBF32605A60ECE723466468B2E770
:1017DC0034467668B9E70C2338463B6000F01CF8B9
:1017EC00A1E72560DEE700BFB801002038B5002373
:1017FC00054D044608462B6000F016F8431C02D138
:10180C002B6803B1236038BDC0010020014800F0F3
:10181C0009B800BFC4010020014800F004B800BFA3
:10182C00C401002070477047044A05491368002B17
:10183C0008BF0B461844106018467047C8010020BA
:10184C00D0010020F8B500BFF8BC08BC9E4670471C
:0C185C00F8B500BFF8BC08BC9E46704701
:101868000F00010304050B06414242424242424234
:101878000000000000000000010203040607080938
:08188800ACFFFF7F010000002E
:04189000C90D000876
:04189400A50D000896
:101898000024F40008000020000000000000000000
:1018A8000000000000000000000000000000000030
:1018B8000000000000000000000000000000000020
:1018C8000000000000000000000000000000000010
:1018D8000000000000000000000000000000000000
:1018E80000000000000000000000000000000000F0
:0818F8000000000000000000E8
:040000050800162DAC
:00000001FF
