:020000040800F2
:10000000005000202D130008DD0B0008DF0B000856
:10001000E10B0008E30B0008E50B000800000000FE
:10002000000000000000000000000000E70B0008D6
:10003000E90B000800000000EB0B0008ED0B0008C6
:100040007513000875130008751300087513000870
:100050007513000875130008751300087513000860
:100060007513000875130008751300087513000850
:100070007513000875130008751300087513000840
:100080007513000875130008751300087513000830
:100090007513000875130008751300087513000820
:1000A0007513000875130008751300087513000810
:1000B0007513000875130008751300087513000800
:1000C00075130008751300087513000875130008F0
:1000D00075130008751300087513000875130008E0
:1000E0007513000875130008751300080000000060
:1000F0000000000000000000000000000000000000
:0C01000000000000000000005FF808F1A3
:10010C0010B5054C237833B9044B13B10448AFF345
:10011C0000800123237010BD0400002000000000AB
:10012C00D013000808B5034B1BB103490348AFF3C8
:10013C00008008BD0000000008000020D01300085B
:10014C0010B401290FD004291DD010291DD040292D
:10015C001DD0B1F5807F1CD0B1F5806F01D0062287
:10016C0002E0052200E0002218300B4B995C43584A
:10017C000A4C14F802C0042202FA0CF223EA02031D
:10018C00435010BC70470122EEE70222ECE7032239
:10019C00EAE70422E8E700BFE8130008F0130008C0
:1001AC0082B0064B5A6942F040025A615B6903F017
:1001BC0040030193019B02B0704700BF0010024046
:1001CC002DE9F0418AB00024059406940794089414
:1001DC0009942D4B9A6942F010029A619A6902F0C7
:1001EC0010020492049A9A6942F020029A619A6968
:1001FC0002F020020392039A9A6942F004029A6177
:10020C009A6902F004020292029A9A6942F0080278
:10021C009A619B6903F008030193019B1B484FF4FF
:10022C0000534361DFF868804FF4E073C8F8143072
:10023C00184D4FF480536B61174B059301270697AC
:10024C000226079605A900F028FD144B0593069786
:10025C000796089405A9404600F01FFD40F20443A0
:10026C0005930423069305A9284600F016FD0C4BB4
:10027C00059306970796089405A9284600F00DFDEE
:10028C000AB0BDE8F08100BF001002400010014030
:10029C0000080140000C014020002004C1C00104F2
:1002AC001000100430B591B000240E940F940D94EE
:1002BC00089409940A940B940C9403940494059454
:1002CC0006940794304B9A6942F400729A619A69C9
:1002DC0002F400720292029A9A6942F004029A6144
:1002EC009B6903F004030193019B43F233330393A3
:1002FC0003A9264800F0D1FC0E940F94244D0EA9AE
:10030C00284600F08BFC0D940DA9284600F06AFCE1
:10031C004FF46023089309940A940B940C9408A945
:10032C00284600F08FFC1B494FF4407393FAA3F35B
:10033C00B3FA83F34FF40072DA4051F8223023F011
:10034C001F0343F0040341F822300C354FF00073C7
:10035C0093FAA3F2B2FA82F2D34055F823204FF06D
:10036C00F87191FAA1F4B4FA84F44FF4400020FA35
:10037C0004F40720A04022EA000291FAA1F145F80A
:10038C00232011B030BD00BF001002400008014016
:10039C00002401402C24014030B58FB00024089477
:1003AC0009940A940B940C940D940394049405945E
:1003BC0006940794244DAB6943F00803AB61AB6919
:1003CC0003F008030293029B204B0393092304932D
:1003DC00032305930423069303A91D4800F05DFC39
:1003EC001C4A536843F0E06343F002035360EB692B
:1003FC0043F40013EB61EB6903F400130193019BCD
:10040C00A5F5DE35EB6823F00103EB602B6823F0D8
:10041C0040032B602B6823F080032B6008940E4B59
:10042C0009930A940B944FF480630C934FF480431C
:10043C000D9308A9284600F0BBFCEB6823F0FE03E3
:10044C00EB600FB030BD00BF00100240030003048E
:10045C00000C014000000140A086010030B593B0B3
:10046C002822002108A800F0A5FF0024039404947E
:10047C000594069407941D4BDA6942F48042DA61C4
:10048C00DA6902F480420292029A9A6942F00802F6
:10049C009A619B6903F008030193019B144B03932E
:1004AC000923049303230593124D03A9284600F056
:1004BC00F4FB114B03930423049303A9284600F087
:1004CC00ECFB08944FF4827309930A940B940C94EC
:1004DC004FF400730D930E940F9410940A23119300
:1004EC0008A9064800F048FD13B030BD00100240CA
:1004FC00A000A004000C0140400040040038004063
:10050C00F0B597B00024119412941394149415948C
:10051C002022214609A800F04DFF0494059406946E
:10052C00079408943F4EF36943F00103F361F369B8
:10053C0003F001030393039B4FF6FF73139311A96D
:10054C004FF0804000F01AFE4FF080452B6823F0EE
:10055C0080032B60344FAB6943F00803AB6160231D
:10056C0009930A940B940C940D9409AA0121284622
:10057C0000F03CFE01212846FFF7E2FDAB6943F495
:10058C000063AB6109AA1021284600F02FFE102150
:10059C002846FFF7D5FD7B6843F400637B6009AA0E
:1005AC004FF48051284600F021FE4FF4805128462C
:1005BC00FFF7C6FD6B6823F070036B60AB6823F02C
:1005CC008003AB60B36943F00803B361B36903F014
:1005DC0008030293029BB36943F00403B361B3694C
:1005EC0003F004030193019B104B04930926059619
:1005FC0002250695079404A90D4800F04EFB0D4BFF
:10060C00049305960695079404A90B4800F045FB46
:10061C000A4A536843F0E06343F44073536017B0E5
:10062C00F0BD00BF0010024018000040080808048C
:10063C00000C0140800080040008014000000140D3
:10064C002DE9F04194B000250F9510951195129558
:10065C0013952022294607A800F0ACFE02950395BD
:10066C00049505950695464EF36943F00203F36134
:10067C00F36903F002030193019B4FF6FF7311938F
:10068C00404C0FA9204600F079FD236823F080032D
:10069C002360A36823F4804323F00703A3603A4F3D
:1006AC004FF08048D8F8183443F00803C8F81834D1
:1006BC0060230793089509950A950B9507AA0121C4
:1006CC00204600F093FD01212046FFF739FDD8F8B4
:1006DC00183443F40063C8F8183407AA10212046D4
:1006EC0000F084FD10212046FFF72AFD7B6843F0C3
:1006FC0008037B6007AA4FF48071204600F076FD5A
:10070C004FF480712046FFF71BFD7B6843F40063B8
:10071C007B6007AA4FF48051204600F067FD4FF430
:10072C0080512046FFF70CFD636823F07003636073
:10073C00A36823F08003A360B36943F00803B3619B
:10074C00B36903F008030093009B43F23333029325
:10075C000923039302230493059502A90B4800F087
:10076C009CFA0B4A536823F0E06323F4406343F094
:10077C00E06343F40063536014B0BDE8F08100BF44
:10078C00001002400004004018040040000C01401E
:10079C0000000140F0B595B000240F941094119412
:1007AC00129413942022214607A800F003FE029411
:1007BC0003940494059406942D4EF36943F00403BA
:1007CC00F361F36903F004030193019B4FF6FF738C
:1007DC001193284D0FA9284600F0D0FC2B6823F06C
:1007EC0080032B604FF08047D7F8183843F008038C
:1007FC00C7F8183860230793089409940A940B944B
:10080C0007AA0121284600F0F1FC01212846FFF738
:10081C0097FCD7F8183843F40063C7F8183807AAC0
:10082C001021284600F0E2FC10212846FFF788FC36
:10083C006B6823F070036B60AB6823F08003AB60D4
:10084C00B36943F00803B361B36903F00803009381
:10085C00009B4CF2C00302930923039302230493DD
:10086C00059402A9044800F018FA15B0F0BD00BFB9
:10087C000010024000080040000C014030B58FB061
:10088C0000240794089409940A940B940C940D94E6
:10089C0002940394049405940694214B9A6942F4AF
:1008AC0080429A619A6902F480420192019A9A6993
:1008BC0042F004029A619B6903F004030093009BCD
:1008CC00184B02930923039303230493164D02A997
:1008DC00284600F0E2F9154B02930423039302A976
:1008EC00284600F0DAF94FF4E133079308940994A1
:1008FC000A940C230B930C940D940D4C07A92046D1
:10090C0000F092FC236923F490432361636923F084
:10091C002A036361E36843F40053E3600FB030BD16
:10092C00001002400200020400080140040004040C
:10093C000038014030B58FB0002407940894099416
:10094C000A940B940C940D940294039404940594BF
:10095C000694224BDA6942F40032DA61DA6902F465
:10096C0000320192019A9A6942F004029A619B69E1
:10097C0003F004030093009B40F204430293092309
:10098C00039303230493164D02A9284600F085F91E
:10099C0040F6080302930423039302A9284600F0AF
:1009AC007CF94FF4E1330793089409940A940C23CF
:1009BC000B930C940D940B4C07A9204600F034FCBF
:1009CC00236923F490432361636923F02A03636151
:1009DC00E36843F40053E3600FB030BD00100240F5
:1009EC00000801400044004010B58EB0002407946C
:1009FC00089409940A940B940C940D940294039407
:100A0C000494059406941F4BDA6942F48022DA614F
:100A1C00DA6902F480220192019A9A6942F0080282
:100A2C009A619B6903F008030093009B164B029399
:100A3C0009230393032304930423059302A9134866
:100A4C0000F02BF94FF4E1330793089409940A94BE
:100A5C000C230B930D940E4C07A9204600F0E4FBDD
:100A6C00236923F490432361636923F022036361B8
:100A7C00636943F008036361E36843F40053E36084
:100A8C000EB010BD0010024004000404000C014024
:100A9C000048004010B5274A136823F0070343F0C1
:100AAC0002031360234B1B6803F00703022BF9D1DD
:100ABC00214A136843F4803313601F4B1B6813F4F3
:100ACC00003FFAD01C4A536823F47C1343F4E81318
:100ADC005360136843F080731360174B1B6813F05B
:100AEC00007FFAD0144B5A6822F0F0025A605A6810
:100AFC0022F4E06242F480625A605A6822F4605236
:100B0C005A605A6822F0030242F002025A600A4B01
:100B1C005B6803F00C03082BF9D1084C204600F05D
:100B2C00E9FB204600F0F6FB034A536843F44043CC
:100B3C00536010BD002002400010024000A24A0485
:100B4C0000B583B01E4B9A6942F001029A619A6912
:100B5C0002F001020192019ADA6942F08052DA61E4
:100B6C00DB6903F080530093009B1649CA6822F49A
:100B7C00E0621204120C144B1343CB60134B5A68F3
:100B8C0022F0E0625A605A6842F000725A60FFF735
:100B9C0081FFFFF715FBFFF785FBFFF7FDFBFFF769
:100BAC005DFCFFF7ADFCFFF74BFDFFF7F3FDFFF727
:100BBC0065FEFFF7BFFEFFF717FFFFF7F1FAFEE741
:100BCC000010024000ED00E00003FA0500000140B7
:100BDC00FEE7FEE7FEE7FEE7FEE77047704770476B
:100BEC00704770470C4B9A6803F580639B681343FE
:100BFC0013F0010F0ED10B6833B1426822F470224E
:100C0C001343436000207047436823F47023436010
:100C1C00002070470120704700240140836813F0C6
:100C2C00010F0DD1436823F480734A68134343606A
:100C3C00836823F400630A681343836000207047C1
:100C4C00012070474B68826812F0010F23D110B459
:100C5C00DBB1426822F468428C682343134343603F
:100C6C00836823F4602323F481730A68CC682243DD
:100C7C000C692243134383604B68C26A22F47002EE
:100C8C001343C362002010BC7047426822F46842D0
:100C9C0013434360E4E7012070470B68C3F30F2C48
:100CAC009CFAACF2B2FA82F276E0A2F108044FF0B0
:100CBC000113A34043F080634C68082C2CD01D0E0C
:100CCC0093FAA3F4B4FA84F4A4004FF00F0E0EFAC6
:100CDC0004F4465926EA040493FAA3FEBEFA8EFEE7
:100CEC004FEA8E0E4E6806FA0EFE44EA0E0444518C
:100CFC004C68012C1ED0092C1CD001323CFA02F39A
:100D0C0047D00123934013EA0C0FF6D0072ACCD816
:100D1C0040F201139340CFE70D69C6681C0A26EA1E
:100D2C00132694FAA4F4B4FA84F405FA04F43443C4
:100D3C00C460C4E74FEA136E50F80E4093FAA3F563
:100D4C00B5FA85F5AD00032606FA05F524EA050487
:100D5C0093FAA3F5B5FA85F5AD008E6806FA05F59C
:100D6C00254340F80E50CC6893FAA3F6B6FA86F6F3
:100D7C00B600042707FA06F625EA060593FAA3F34C
:100D8C00B3FA83F39B0004FA03F32B4340F80E30C1
:100D9C00B3E70020F0BD01323CFA02F306D0012388
:100DAC00934013EA0C0FF6D0F0B5AFE70020704774
:100DBC00F0B585B004460D46036823F001030360CB
:100DCC00684600F0C9F8029A6B68AE683648A0FB1A
:100DDC00021C4FEA9C41606820F03F0040EA9C40B6
:100DEC006060206A20F03F00304FBB4237D80131A1
:100DFC00014321622D498B424DD9002E39D103EB91
:100E0C004303B2FBF3F2C2F30B03002B3DD042F4CD
:100E1C00004246EA0203E26922F44F4222F0FF024A
:100E2C001A43E261EA686969A36823F4034323F077
:100E3C00FF030A431343A3602B68226822F01A02B3
:100E4C0013432360236843F0010323602B6922685A
:100E5C0022F4806213432360002005B0F0BD4FF4F0
:100E6C00967707FB01F1124FA7FB0171890901313C
:100E7C00BEE703EB830303EB8303B2FBF3F2C2F392
:100E8C000B032BB142F40042C3E748F20102C0E766
:100E9C0048F20102BDE75B00B2FBF3F340F6FC72D3
:100EAC001342B8D10423B6E783DE1B43A0860100AE
:100EBC00D34D6210034B5B68C3F30313024AD35C3C
:100ECC00D840704700100240F8130008034B5B68D1
:100EDC00C3F30223024AD35CD8407047001002408F
:100EEC0008140008034B5B68C3F3C223024AD35CAB
:100EFC00D840704700100240081400080B4B5B6888
:100F0C0003F4803343B90A48084B5B68C3F383434B
:100F1C00023303FB00F07047044B5868C0F34040A9
:100F2C00431C0448B0FBF3F0EEE700BF0010024096
:100F3C0000093D0000127A0008B5054B5B6803F010
:100F4C000C03082B01D0034808BDFFF7D7FFFBE7C4
:100F5C000010024000127A0010B50446FFF7ECFFB7
:100F6C002060FFF7A7FF6060FFF7B0FFA06060682C
:100F7C00FFF7B8FFE06010BD036813F0400F29D1F4
:100F8C0010B4026822F47F4222F0BF020B684C6856
:100F9C0023438C682343CC6823430C6923434C695B
:100FAC0023438C692343CC6923430C6A23431343A7
:100FBC000360436823F00403CA8A134343600B6A3B
:100FCC00B3F5005F02D0002010BC70478B8C03611E
:100FDC000020F9E70120704730B4036A23F00103C5
:100FEC000362036A4468826922F073020D682A4323
:100FFC0023F002030D692B4323F001034D682B43AF
:10100C000F4DA84207D044608261CA6842630362F4
:10101C00002030BC704723F008034D6943EA850378
:10102C0023F004038D6843EA850324F480748D69EE
:10103C002C4324F40074CD6944EA4504E3E700BF73
:10104C00002C014030B4036A23F010030362036ADE
:10105C004468826922F4E6420D6842EA052223F0D4
:10106C0020030D6943EA051323F010034D6843EA8E
:10107C000513104DA84207D044608261CA68826390
:10108C000362002030BC704723F080034D6943EAB3
:10109C00851323F040038D6843EA851324F48064A0
:1010AC008D6944EA850424F40064CD6944EAC504DE
:1010BC00E2E700BF002C014030B4036A23F48073D4
:1010CC000362036A4468C26922F073020D682A4302
:1010DC0023F400730D6943EA052323F480734D68F0
:1010EC0043EA05230F4DA84207D04460C261CA6889
:1010FC00C2630362002030BC704723F400634D6967
:10110C0043EA852323F480638D6843EA852324F422
:10111C0080548D6944EA051424F40054CD6944EAE2
:10112C004514E2E7002C014030B4036A23F48053E9
:10113C000362036A4468C26922F4E6420D6842EA1B
:10114C00052223F400530D6943EA053323F480533D
:10115C004D6843EA0533084DA84207D04460C2618C
:10116C00CA6802640362002030BC704724F48044D7
:10117C008D6944EA8514F1E7002C014003681A4A92
:10118C0090420AD0B0F1804F07D0A2F59432904231
:10119C0003D002F58062904203D123F070034A68B9
:1011AC001343114A90420AD0B0F1804F07D0A2F5F8
:1011BC009432904203D002F58062904203D123F422
:1011CC004073CA68134303608B68C3620B888362E5
:1011DC00054B984205D0436943F00103436100205D
:1011EC0070470B690363F6E7002C014008B50B460A
:1011FC001146B3F5807F14D008D8012B0ED0102BDC
:10120C0002D1FFF71FFF08E0012006E0B3F5805F75
:10121C0002D1FFF789FF00E0012008BDFFF7DCFEDB
:10122C00FBE7FFF749FFF8E7C36813F4005F01D051
:10123C000120704730B585B004460D46C36823F4D1
:10124C00B05323F00C034A68C9680A4329690A435E
:10125C001343C360AB68026922F440521343036129
:10126C006B69426922F44072134343616846FFF78D
:10127C0073FE1C4B9C4208D01B4B9C420BD01B4B4F
:10128C009C420AD0012005B030BD039B43B32A68B1
:10129C002AB90120F7E7029BF8E7029BF6E703EB7C
:1012AC00830303EB83039200B3FBF2F31048A0FB20
:1012BC00032149090A0192B2642505FB11331B0174
:1012CC003233A0FB0313C3F34F1303F0F0010A44B2
:1012DC0092B203F00F0313449BB2A3600020D2E739
:1012EC000120D0E700380140004400400048004095
:1012FC001F85EB51064BA3FB00239B09013B4FF0D1
:10130C00E02253610023936105231361704700BFF2
:10131C00D34D6210014B1860704700BF00000020D5
:10132C000C480D490D4A002302E0D458C450043334
:10133C00C4188C42F9D30A4A0A4C002301E013600A
:10134C000432A242FBD3FFF74CFC00F00FF8FFF77E
:10135C00F7FB704700000020040000201814000860
:10136C000400002020000020FEE7000070B50026DD
:10137C000C4D0D4C641BA410A64209D100F022F8B0
:10138C0000260A4D0A4C641BA410A64205D170BD60
:10139C0055F8043B98470136EEE755F8043B98475F
:1013AC000136F2E71014000810140008101400089D
:1013BC001414000803460244934200D1704703F80A
:1013CC00011BF9E7F8B500BFF8BC08BC9E46704796
:0C13DC00F8B500BFF8BC08BC9E46704786
:1013E80000000000040404000000080000000800D9
:1013F80000000000000000000102030406070809BD
:081408000000000001020304D2
:04141000310100089E
:041414000D010008BE
:041418000024F400B8
:040000050800132DAF
:00000001FF
