:020000040800F2
:10000000005000202903000885020008870200082C
:1000100071030008890200088B020008000000003C
:100020000000000000000000000000008D02000839
:100030008F02000800000000910200084D01000836
:1000400071030008710300087103000871030008C0
:1000500071030008710300087103000871030008B0
:1000600071030008710300087103000871030008A0
:100070007103000871030008710300087103000890
:100080007103000871030008710300087103000880
:100090007103000871030008710300087103000870
:1000A0007103000871030008710300087103000860
:1000B0007103000871030008710300087103000850
:1000C0007103000871030008710300087103000840
:1000D0007103000871030008710300087103000830
:1000E000710300087103000871030008000000009C
:1000F0000000000000000000000000000000000000
:0C01000000000000000000005FF808F1A3
:10010C0010B5054C237833B9044B13B10448AFF345
:10011C0000800123237010BD0400002000000000AB
:10012C00BC03000808B5034B1BB103490348AFF3EC
:10013C00008008BD0000000008000020BC0300087F
:10014C0008B500F08BF808BD08B5374B1A681A6073
:10015C00354B1B6813F0020FFAD0334B1A6842F47C
:10016C0080321A601A6822F480221A602E4B1B68A7
:10017C0013F4003FFAD02D4B1A6842F010021A60AB
:10018C001A6822F008021A601A6822F007021A6034
:10019C001A6842F002021A60A3F580531A6822F022
:1001AC0080721A605A6822F0E0625A605A6822F42F
:1001BC0080025A605A6842F480325A605A6842F49B
:1001CC0040425A605A6822F460525A605A6822F4CB
:1001DC00E0625A605A6842F480625A605A6822F4AB
:1001EC0070125A605A6842F4E0125A601A6842F06F
:1001FC0080721A600C4B1B6813F0007FFAD00A4B0C
:10020C005A6822F0F0025A605A6822F003025A60CF
:10021C005A6842F002025A60034B5B6813F0080FF5
:10022C00FAD000F031F808BD001002400020024066
:10023C0008B5FFF789FF074A936943F010039361F0
:10024C00054B5A6842F480025A601A6942F4005213
:10025C001A61FEE70010024000100140044B1B78AD
:10026C0023B1044A13780133DBB21370704700BF1B
:10027C002100002020000020FEE7FEE7FEE7FEE75D
:10028C0070477047704770471F4B5B6803F00C0357
:10029C00042B14D0082B16D01BB11C4B1C4A1A6013
:1002AC0002E01A4B1A4A1A60174B5B68C3F303132C
:1002BC00184AD15C154A1368CB4013607047134B36
:1002CC00134A1A60F0E7104A53685268C3F3834329
:1002DC00023312F4803F05D10F4A02FB03F30B4AA1
:1002EC001360E1E7084A526812F4003F05D00A4A4D
:1002FC0002FB03F3054A1360D6E7054A02FB03F33E
:10030C00024A1360D0E700BF00100240000000203A
:10031C0000127A00D403000800093D000C480D4976
:10032C000D4A002302E0D458C4500433C4188C4244
:10033C00F9D30A4A0A4C002301E013600432A242AA
:10034C00FBD3FFF7A0FF00F00FF8FFF771FF70472A
:10035C000000002004000020EC0300080400002032
:10036C0024000020FEE7000070B500260C4D0D4C5B
:10037C00641BA410A64209D100F01AF800260A4DFD
:10038C000A4C641BA410A64205D170BD55F8043B61
:10039C0098470136EEE755F8043B98470136F2E7EB
:1003AC00E4030008E4030008E4030008E803000881
:1003BC00F8B500BFF8BC08BC9E467047F8B500BF46
:0803CC00F8BC08BC9E46704716
:1003D40000000000000000000102030406070809F1
:0403E40031010008DB
:0403E8000D010008FB
:0403EC000024F400F5
:0400000508000329C3
:00000001FF
