:020000040800F2
:100000000050002051100008AD0F0008AF0F00088D
:1000100099100008B10F0008B30F0008000000009D
:10002000000000000000000000000000B50F000804
:10003000B70F000800000000B90F00080F0D0008FE
:1000400099100008991000089910000899100008EC
:1000500099100008991000089910000899100008DC
:1000600099100008991000089910000899100008CC
:1000700099100008991000089910000899100008BC
:1000800099100008991000089910000899100008AC
:10009000991000089910000899100008991000089C
:1000A000991000089910000899100008991000088C
:1000B000991000089910000899100008991000087C
:1000C000991000089910000899100008991000086C
:1000D000991000089910000899100008991000085C
:1000E00099100008991000089910000800000000FD
:1000F0000000000000000000000000000000000000
:0C01000000000000000000005FF808F1A3
:10010C0081F0004102E000BF83F0004330B54FEABC
:10011C0041044FEA430594EA050F08BF90EA020F29
:10012C001FBF54EA000C55EA020C7FEA645C7FEABC
:10013C00655C00F0E2804FEA5454D4EB5555B8BFDF
:10014C006D420CDD2C4480EA020281EA030382EA50
:10015C00000083EA010180EA020281EA0303362DE2
:10016C0088BF30BD11F0004F4FEA01314FF4801CB5
:10017C004CEA113102D0404261EB410113F0004FC7
:10018C004FEA03334CEA133302D0524263EB43037E
:10019C0094EA050F00F0A780A4F10104D5F1200E1C
:1001AC000DDB02FA0EFC22FA05F2801841F1000177
:1001BC0003FA0EF2801843FA05F359410EE0A5F14B
:1001CC0020050EF1200E012A03FA0EFC28BF4CF07C
:1001DC00020C43FA05F3C01851EBE37101F0004532
:1001EC0007D54FF0000EDCF1000C7EEB00006EEB3F
:1001FC000101B1F5801F1BD3B1F5001F0CD34908C9
:10020C005FEA30004FEA3C0C04F101044FEA44521F
:10021C0012F5800F80F09A80BCF1004F08BF5FEAA6
:10022C00500C50F1000041EB045141EA050130BD86
:10023C005FEA4C0C404141EB0101013C28BFB1F598
:10024C00801FE9D291F0000F04BF01460020B1FAE3
:10025C0081F308BF2033A3F10B03B3F120020CDAB6
:10026C000C3208DD02F1140CC2F10C0201FA0CF094
:10027C0021FA02F10CE002F11402D8BFC2F1200CF9
:10028C0001FA02F120FA0CFCDCBF41EA0C019040AF
:10029C00E41AA2BF01EB0451294330BD6FEA0404F8
:1002AC001F3C1CDA0C340EDC04F11404C4F12002E3
:1002BC0020FA04F001FA02F340EA030021FA04F3F5
:1002CC0045EA030130BDC4F10C04C4F1200220FA4C
:1002DC0002F001FA04F340EA0300294630BD21FA8A
:1002EC0004F0294630BD94F0000F83F4801306BF50
:1002FC0081F480110134013D4EE77FEA645C18BF44
:10030C007FEA655C29D094EA050F08BF90EA020FDA
:10031C0005D054EA000C04BF1946104630BD91EAD2
:10032C00030F1EBF0021002030BD5FEA545C05D1D5
:10033C004000494128BF41F0004130BD14F5800414
:10034C003CBF01F5801130BD01F0004545F0FE4188
:10035C0041F470014FF0000030BD7FEA645C1ABFBD
:10036C00194610467FEA655C1CBF0B46024650EAF4
:10037C00013406BF52EA033591EA030F41F4002120
:10038C0030BD00BF90F0000F04BF0021704730B5A6
:10039C004FF4806404F132044FF000054FF000017B
:1003AC0050E700BF90F0000F04BF0021704730B53C
:1003BC004FF4806404F1320410F0004548BF404211
:1003CC004FF000013EE700BF42004FEAE2014FEA66
:1003DC0031014FEA02701FBF12F07F4393F07F4F41
:1003EC0081F06051704732F07F4208BF704793F044
:1003FC007F4F04BF41F40021704730B54FF4607457
:10040C0001F0004521F000411CE700BF50EA010259
:10041C0008BF704730B54FF000050AE050EA010202
:10042C0008BF704730B511F0004502D5404261EB72
:10043C0041014FF4806404F132045FEA915C3FF4B3
:10044C00D8AE4FF003025FEADC0C18BF03325FEA50
:10045C00DC0C18BF033202EBDC02C2F1200300FA01
:10046C0003FC20FA02F001FA03FE40EA0E0021FA26
:10047C0002F11444BDE600BF70B54FF0FF0C4CF414
:10048C00E06C1CEA11541DBF1CEA135594EA0C0FC6
:10049C0095EA0C0F00F0DEF82C4481EA030621EA01
:1004AC004C5123EA4C5350EA013518BF52EA03353C
:1004BC0041F4801143F4801338D0A0FB02CE4FF0EE
:1004CC000005E1FB02E506F00042E0FB03E54FF01E
:1004DC000006E1FB03569CF0000F18BF4EF0010E16
:1004EC00A4F1FF04B6F5007F64F5407404D25FEA12
:1004FC004E0E6D4146EB060642EAC62141EA5551C5
:10050C004FEAC52040EA5E504FEACE2EB4F1FD0C06
:10051C0088BFBCF5E06F1ED8BEF1004F08BF5FEA84
:10052C00500E50F1000041EB045170BD06F0004636
:10053C0046EA010140EA020081EA0301B4EB5C04E3
:10054C00C2BFD4EB0C0541EA045170BD41F48011DB
:10055C004FF0000E013C00F3AB8014F1360FDEBF00
:10056C00002001F0004170BDC4F10004203C35DADC
:10057C000C341BDC04F11404C4F1200500FA05F35F
:10058C0020FA04F001FA05F240EA020001F0004200
:10059C0021F0004110EBD37021FA04F642EB060176
:1005AC005EEA430E08BF20EAD37070BDC4F10C04A0
:1005BC00C4F1200500FA04F320FA05F001FA04F264
:1005CC0040EA020001F0004110EBD37041F1000150
:1005DC005EEA430E08BF20EAD37070BDC4F120055B
:1005EC0000FA05F24EEA020E20FA04F301FA05F2C3
:1005FC0043EA020321FA04F001F0004121FA04F26B
:10060C0020EA020000EBD3705EEA430E08BF20EA3A
:10061C00D37070BD94F0000F0FD101F00046400074
:10062C0041EB010111F4801F08BF013CF7D041EAF6
:10063C00060195F0000F18BF704703F000465200FA
:10064C0043EB030313F4801F08BF013DF7D043EACB
:10065C000603704794EA0C0F0CEA135518BF95EA81
:10066C000C0F0CD050EA410618BF52EA4306D1D108
:10067C0081EA030101F000414FF0000070BD50EA27
:10068C00410606BF1046194652EA430619D094EAB1
:10069C000C0F02D150EA013613D195EA0C0F05D19B
:1006AC0052EA03361CBF104619460AD181EA0301EF
:1006BC0001F0004141F0FE4141F470014FF00000A7
:1006CC0070BD41F0FE4141F4780170BD70B54FF042
:1006DC00FF0C4CF4E06C1CEA11541DBF1CEA1355C2
:1006EC0094EA0C0F95EA0C0F00F0A7F8A4EB0504A4
:1006FC0081EA030E52EA03354FEA013100F088809B
:10070C004FEA03334FF0805545EA131343EA126363
:10071C004FEA022245EA111545EA10654FEA002618
:10072C000EF000419D4208BF964244F1FD0404F5D1
:10073C00407402D25B084FEA3202B61A65EB03052D
:10074C005B084FEA32024FF480104FF4002CB6EBEA
:10075C00020E75EB030E22BFB61A754640EA0C006A
:10076C005B084FEA3202B6EB020E75EB030E22BFAA
:10077C00B61A754640EA5C005B084FEA3202B6EBEB
:10078C00020E75EB030E22BFB61A754640EA9C00AA
:10079C005B084FEA3202B6EB020E75EB030E22BF7A
:1007AC00B61A754640EADC0055EA060E18D04FEA38
:1007BC00051545EA16754FEA06164FEAC30343EAD8
:1007CC0052734FEAC2025FEA1C1CC0D111F4801FA5
:1007DC000BD141EA00014FF000004FF0004CB6E79E
:1007EC0011F4801F04BF01430020B4F1FD0C88BF3D
:1007FC00BCF5E06F3FF6AFAEB5EB030C04BFB6EB48
:10080C00020C5FEA500C50F1000041EB045170BD3A
:10081C000EF0004E4EEA113114EB5C04C2BFD4EB67
:10082C000C0541EA045170BD41F480114FF0000EEB
:10083C00013C90E645EA060E8DE60CEA135594EA67
:10084C000C0F08BF95EA0C0F3FF43BAF94EA0C0F6A
:10085C000AD150EA01347FF434AF95EA0C0F7FF4DF
:10086C0025AF104619462CE795EA0C0F06D152EA33
:10087C0003353FF4FDAE1046194622E750EA410617
:10088C0018BF52EA43067FF4C5AE50EA41047FF428
:10089C000DAF52EA43057FF4EBAE12E74A0011D2DA
:1008AC0012F5001211D20DD56FF47873B3EB6252BE
:1008BC000ED44FEAC12343F0004343EA505323FACA
:1008CC0002F070474FF00000704750EA013002D13F
:1008DC004FF0FF3070474FF00000704780F0004041
:1008EC0002E000BF81F0004142001FBF5FEA4103FC
:1008FC0092EA030F7FEA226C7FEA236C6AD04FEAFC
:10090C001262D2EB1363C1BFD21841404840414040
:10091C00B8BF5B42192B88BF704710F0004F40F4F2
:10092C00000020F07F4018BF404211F0004F41F40E
:10093C00000121F07F4118BF494292EA030F3FD0DA
:10094C00A2F1010241FA03FC10EB0C00C3F12003ED
:10095C0001FA03F100F0004302D5494260EB40007C
:10096C00B0F5000F13D3B0F1807F06D340084FEAE7
:10097C00310102F10102FE2A51D2B1F1004F40EBDC
:10098C00C25008BF20F0010040EA03007047490044
:10099C0040EB0000013A28BFB0F5000FEDD2B0FAE1
:1009AC0080FCACF1080CB2EB0C0200FA0CF0AABF04
:1009BC0000EBC25052421843BCBFD04018437047A2
:1009CC0092F0000F81F4000106BF80F400000132A8
:1009DC00013BB5E74FEA41037FEA226C18BF7FEA7F
:1009EC00236C21D092EA030F04D092F0000F08BFC1
:1009FC000846704790EA010F1CBF0020704712F0A8
:100A0C007F4F04D1400028BF40F00040704712F1E6
:100A1C0000723CBF00F50000704700F0004343F04B
:100A2C00FE4040F4000070477FEA226216BF084681
:100A3C007FEA23630146420206BF5FEA412390EA44
:100A4C00010F40F4800070474FF0000304E000BF3A
:100A5C0010F0004348BF40425FEA000C08BF7047EB
:100A6C0043F0964301464FF000001CE050EA0102AF
:100A7C0008BF70474FF000030AE000BF50EA0102C4
:100A8C0008BF704711F0004302D5404261EB4101B1
:100A9C005FEA010C02BF84460146002043F0B643D6
:100AAC0008BFA3F18053A3F50003BCFA8CF2083AFB
:100ABC00A3EBC25310DB01FA02FC634400FA02FC04
:100ACC00C2F12002BCF1004F20FA02F243EB02000B
:100ADC0008BF20F00100704702F1200201FA02FC6D
:100AEC00C2F1200250EA4C0021FA02F243EB020060
:100AFC0008BF20EADC70704710B5054C237833B979
:100B0C00044B13B10448AFF300800123237010BDD4
:100B1C0068000020000000007412000808B5034BA8
:100B2C001BB103490348AFF3008008BD000000006F
:100B3C006C00002074120008F0B583B001909DF891
:100B4C000640A4F14103DBB2042B00F284809DF833
:100B5C000460032E00F282809DF80570072F7FD869
:100B6C009DF807500F2D7DD80C2000F0B5FAA4F19C
:100B7C004103042B0BD8DFE803F0032D353D450072
:100B8C00394A936943F004039361384B8360467090
:100B9C0087700571C47000230370072D3AD88268E2
:100BAC001368A9000F258D4023EA0505156084689C
:100BBC0023684278017989008A4013432360846852
:100BCC00216883785B0802799200023293400B43D0
:100BDC00236041E0244A936943F008039361244B5A
:100BEC008360D4E7204A936943F010039361214B4F
:100BFC008360CCE71C4A936943F0200393611E4B3E
:100C0C008360C4E7184A936943F0400393611B4B1C
:100C1C008360BCE781684B68083DAD000F2202FA87
:100C2C0005F523EA05054D6084686268417803790F
:100C3C00083B9B0001FA03F313436360846861680B
:100C4C0083785A080379083B9B00023302FA03F3BA
:100C5C000B43636000E0002003B0F0BD0020FBE715
:100C6C000020F9E70020F7E70010024000080140DF
:100C7C00000C01400010014000140140001801401C
:100C8C000123037081680A690079834013430B6167
:100C9C0070470000014B1888704700BF840000208B
:100CAC004FF0E022136923F0010313617047000039
:100CBC0010B50D4C208000F07BF922880B4B1B6883
:100CCC00B3FBF2F3013BB3F1807F0AD24FF0E02289
:100CDC005361074BF02183F8231000239361072302
:100CEC001361FFF7DDFF10BD840000200000002021
:100CFC0000ED00E04FF0E022136943F001031361B3
:100D0C00704708B500F03EF908BD000008B5374B38
:100D1C001A681A60354B1B6813F0020FFAD0334B6C
:100D2C001A6842F480321A601A6822F480221A601F
:100D3C002E4B1B6813F4003FFAD02D4B1A6842F06F
:100D4C0010021A601A6822F008021A601A6822F05F
:100D5C0007021A601A6842F002021A60A3F5805367
:100D6C001A6822F080721A605A6822F0E0625A60A7
:100D7C005A6822F480025A605A6842F480325A60EF
:100D8C005A6842F440425A605A6822F460525A60DF
:100D9C005A6822F4E0625A605A6842F480625A60DF
:100DAC005A6822F470125A605A6842F4E0125A607F
:100DBC001A6842F080721A600C4B1B6813F0007FAB
:100DCC00FAD00A4B5A6822F0F0025A605A6822F0A4
:100DDC0003025A605A6842F002025A60034B5B6885
:100DEC0013F0080FFAD000F0E3F808BD0010024031
:100DFC000020024008B5FFF789FF4FF47A70FFF727
:100E0C0057FFFFF777FF00F093F810B900F026F8C2
:100E1C00FCE74FF63F4000F01BF84FF47A7000F0FF
:100E2C0057F800F00FF8F1E70023034A1370034A58
:100E3C001370034A13707047940000209600002032
:100E4C0086000020014B01221A7070478C00002094
:100E5C00014B1860704700BF8800002008B5154B87
:100E6C001B782BB3134A1378013BDBB21370124A75
:100E7C001378591C1170114A12789342EFD30E4B10
:100E8C0000221A700E4B1868FFF7FAFE0D4A136811
:100E9C005B0813600C4A1378591C11701F2BDED998
:100EAC00134600221A70094B1A68064B1A60D6E7D3
:100EBC0008BD00BF86000020960000209500002091
:100ECC009000002098000020940000208800002052
:100EDC0070B50446FFF7DEFE0646114B1C8020461B
:100EEC00FFF7B2FDFFF770FA00220E4BFFF7EEFB97
:100EFC0004460D463046FFF7A7FDFFF765FA02469C
:100F0C000B4620462946FFF7B7FA0022064BFFF79F
:100F1C00B3FAFFF7C3FC054B1870FFF785FF70BDE4
:100F2C008E00002000408F400000A03F9500002064
:100F3C0000B583B063238DF8063017238DF8073086
:100F4C0004238DF8053003238DF804300198FFF746
:100F5C00F3FD094B186068B14FF0FF33074A13607B
:100F6C00074A13604FF47A70FFF7B2FF002003B00A
:100F7C005DF804FB0120FAE79000002088000020B7
:100F8C0098000020044B1B7823B1044A13780133DA
:100F9C00DBB21370704700BF8C000020860000206D
:100FAC00FEE7FEE7FEE7FEE77047704770477047C5
:100FBC001F4B5B6803F00C03042B14D0082B16D0CA
:100FCC001BB11C4B1C4A1A6002E01A4B1A4A1A60DD
:100FDC00174B5B68C3F30313184AD15C154A1368AB
:100FEC00CB4013607047134B134A1A60F0E7104A5A
:100FFC0053685268C3F38343023312F4803F05D124
:10100C000F4A02FB03F30B4A1360E1E7084A5268EC
:10101C0012F4003F05D00A4A02FB03F3054A1360A1
:10102C00D6E7054A02FB03F3024A1360D0E700BF80
:10103C00001002400000002000127A008C12000800
:10104C0000093D000C480D490D4A002302E0D4581C
:10105C00C4500433C4188C42F9D30A4A0A4C0023F6
:10106C0001E013600432A242FBD3FFF7A0FF00F0B3
:10107C000FF8FFF7BFFE704700000020680000204B
:10108C00AC12000868000020B0000020FEE7000051
:10109C0070B500260C4D0D4C641BA410A64209D152
:1010AC0000F0E2F800260A4D0A4C641BA410A6427C
:1010BC0005D170BD55F8043B98470136EEE755F85D
:1010CC00043B98470136F2E7A4120008A41200086A
:1010DC00A4120008A8120008024B0146186800F080
:1010EC0023B800BF0400002070B50E4E0C463168CA
:1010FC00054611B900F08CF830602146284600F006
:10110C0087F8431C0AD0C41C24F00304A04207D067
:10111C00211A284600F07CF8013001D14FF0FF3441
:10112C00204670BDA00000202DE9F041CD1C25F01B
:10113C00030508350C2D38BF0C25002D074601DBA7
:10114C00A94205D90C2300263B603046BDE8F0814E
:10115C002E4E00F06DF833681C4634BB29463846D9
:10116C00FFF7C2FF431C04464DD134682646002EBF
:10117C0040D123683146384604EB030800F048F8A8
:10118C0080453AD1216803356D1A25F003050835E1
:10119C000C2D38BF0C2538462946FFF7A5FF01302A
:1011AC002BD023682B4423600EE02268521B1ED4E4
:1011BC000B2A16D96119A342256018BF59606368C0
:1011CC0008BF316062514B60384604F10B0600F0E9
:1011DC0035F826F00706231DF21AB6D09B1BA35038
:1011EC00B3E76268A3420CBF32605A60ECE7234657
:1011FC006468B2E734467668B9E70C2338463B603E
:10120C0000F01CF8A1E72560DEE700BF9C00002081
:10121C0038B50023054D044608462B6000F016F83F
:10122C00431C02D12B6803B1236038BDA4000020FD
:10123C00014800F009B800BFA8000020014800F0E8
:10124C0004B800BFA800002070477047044A054945
:10125C001368002B08BF0B461844106018467047E3
:10126C00AC000020B0000020F8B500BFF8BC08BCF2
:10127C009E467047F8B500BFF8BC08BC9E46704748
:10128C00000000000000000001020304060708092A
:08129C00BCFFFF7F0100000010
:0412A400290B00080A
:0412A800050B00082A
:1012AC000024F400080000200000000000000000F2
:1012BC000000000000000000000000000000000022
:1012CC000000000000000000000000000000000012
:1012DC000000000000000000000000000000000002
:1012EC0000000000000000000000000000000000F2
:1012FC0000000000000000000000000000000000E2
:08130C000000000000000000D9
:04000005080010518E
:00000001FF
