:020000040800F2
:1000000000500020FD030008590300085B030008AE
:10001000450400085D0300085F03000800000000BD
:100020000000000000000000000000006103000864
:1000300063030008000000006503000805020008D3
:10004000450400084504000845040008450400086C
:10005000450400084504000845040008450400085C
:10006000450400084504000845040008450400084C
:10007000450400084504000845040008450400083C
:10008000450400084504000845040008450400082C
:10009000450400084504000845040008450400081C
:1000A000450400084504000845040008450400080C
:1000B00045040008450400084504000845040008FC
:1000C00045040008450400084504000845040008EC
:1000D00045040008450400084504000845040008DC
:1000E000450400084504000845040008000000001D
:1000F0000000000000000000000000000000000000
:0C01000000000000000000005FF808F1A3
:10010C0010B5054C237833B9044B13B10448AFF345
:10011C0000800123237010BD0400002000000000AB
:10012C009004000808B5034B1BB103490348AFF317
:10013C00008008BD000000000800002090040008AA
:10014C00024A936943F00403936170470010024024
:10015C0008B50A4B9A6942F004029A619A6942F016
:10016C0008029A619A6942F010029A619A6942F007
:10017C0020029A61024800F033F808BD00100240DA
:10018C004D0100084FF0E022136923F001031361C5
:10019C007047000010B5044600F0E0F80A4B1868F0
:1001AC00B0FBF4F00138B0F1807F0AD24FF0E023BD
:1001BC005861064AF02182F8231000229A61072226
:1001CC001A61FFF7DFFF10BD0000002000ED00E01A
:1001DC004FF0E022136943F00103136170470000F4
:1001EC00034A1378591C1170024A42F823007047D5
:1001FC00200000202400002008B5094B00221A70B2
:10020C0007E0084A52F823309847054A137801331F
:10021C001370034B1B78044A12789342F1D908BD32
:10022C00A4000020240000202000002008B5374B3B
:10023C001A681A60354B1B6813F0020FFAD0334B57
:10024C001A6842F480321A601A6822F480221A600A
:10025C002E4B1B6813F4003FFAD02D4B1A6842F05A
:10026C0010021A601A6822F008021A601A6822F04A
:10027C0007021A601A6842F002021A60A3F5805352
:10028C001A6822F080721A605A6822F0E0625A6092
:10029C005A6822F480025A605A6842F480325A60DA
:1002AC005A6842F440425A605A6822F460525A60CA
:1002BC005A6822F4E0625A605A6842F480625A60CA
:1002CC005A6822F470125A605A6842F4E0125A606A
:1002DC001A6842F080721A600C4B1B6813F0007F96
:1002EC00FAD00A4B5A6822F0F0025A605A6822F08F
:1002FC0003025A605A6842F002025A60034B5B6870
:10030C0013F0080FFAD000F029F808BD00100240D5
:10031C000020024008B5FFF789FF4FF47A70FFF711
:10032C0039FFFFF755FFFFF713FF074B5A6822F40D
:10033C0040025A605A6842F440125A60024A1369E9
:10034C0043F400531361F9E700100140FEE7FEE7A8
:10035C00FEE7FEE770477047704770471F4B5B68BE
:10036C0003F00C03042B14D0082B16D01BB11C4B20
:10037C001C4A1A6002E01A4B1A4A1A60174B5B6847
:10038C00C3F30313184AD15C154A1368CB401360AE
:10039C007047134B134A1A60F0E7104A53685268BF
:1003AC00C3F38343023312F4803F05D10F4A02FB9F
:1003BC0003F30B4A1360E1E7084A526812F4003F5A
:1003CC0005D00A4A02FB03F3054A1360D6E7054A37
:1003DC0002FB03F3024A1360D0E700BF0010024097
:1003EC000000002000127A00A804000800093D005B
:1003FC000C480D490D4A002302E0D458C450043374
:10040C00C4188C42F9D30A4A0A4C002301E0136049
:10041C000432A242FBD3FFF7A0FF00F00FF8FFF766
:10042C0079FF70470000002004000020C004000881
:10043C0004000020A8000020FEE7000070B5002694
:10044C000C4D0D4C641BA410A64209D100F01AF8F7
:10045C0000260A4D0A4C641BA410A64205D170BD9F
:10046C0055F8043B98470136EEE755F8043B98479E
:10047C000136F2E7B8040008B8040008B804000814
:10048C00BC040008F8B500BFF8BC08BC9E46704719
:0C049C00F8B500BFF8BC08BC9E467047D5
:1004A800000000000000000001020304060708091C
:0404B8003101000806
:0404BC000D01000826
:0404C0000024F40020
:04000005080003FDEF
:00000001FF
